{
  "contracts/GameChannel.sol": {
    "GameChannel": {
      "abi": [
        {
          "inputs": [],
          "stateMutability": "payable",
          "type": "constructor"
        },
        {
          "inputs": [],
          "name": "TIMEOUT",
          "outputs": [
            {
              "internalType": "uint256",
              "name": "",
              "type": "uint256"
            }
          ],
          "stateMutability": "view",
          "type": "function"
        },
        {
          "inputs": [
            {
              "internalType": "bytes32",
              "name": "root",
              "type": "bytes32"
            },
            {
              "internalType": "bytes32",
              "name": "leaf",
              "type": "bytes32"
            },
            {
              "internalType": "bytes32[]",
              "name": "proof",
              "type": "bytes32[]"
            }
          ],
          "name": "_verifyMerkleProof",
          "outputs": [
            {
              "internalType": "bool",
              "name": "",
              "type": "bool"
            }
          ],
          "stateMutability": "pure",
          "type": "function"
        },
        {
          "inputs": [],
          "name": "bet",
          "outputs": [
            {
              "internalType": "uint256",
              "name": "",
              "type": "uint256"
            }
          ],
          "stateMutability": "view",
          "type": "function"
        },
        {
          "inputs": [],
          "name": "cancelTimeout",
          "outputs": [],
          "stateMutability": "nonpayable",
          "type": "function"
        },
        {
          "inputs": [],
          "name": "claimTimeout",
          "outputs": [],
          "stateMutability": "nonpayable",
          "type": "function"
        },
        {
          "inputs": [
            {
              "internalType": "uint256[]",
              "name": "_num",
              "type": "uint256[]"
            }
          ],
          "name": "getMessageHash",
          "outputs": [
            {
              "internalType": "bytes32",
              "name": "",
              "type": "bytes32"
            }
          ],
          "stateMutability": "pure",
          "type": "function"
        },
        {
          "inputs": [],
          "name": "getP1",
          "outputs": [
            {
              "internalType": "address",
              "name": "",
              "type": "address"
            }
          ],
          "stateMutability": "view",
          "type": "function"
        },
        {
          "inputs": [],
          "name": "getP2",
          "outputs": [
            {
              "internalType": "address",
              "name": "",
              "type": "address"
            }
          ],
          "stateMutability": "view",
          "type": "function"
        },
        {
          "inputs": [],
          "name": "join",
          "outputs": [],
          "stateMutability": "payable",
          "type": "function"
        },
        {
          "inputs": [],
          "name": "owner",
          "outputs": [
            {
              "internalType": "address",
              "name": "",
              "type": "address"
            }
          ],
          "stateMutability": "view",
          "type": "function"
        },
        {
          "inputs": [
            {
              "internalType": "bytes32",
              "name": "_ethSignedMessageHash",
              "type": "bytes32"
            },
            {
              "internalType": "bytes",
              "name": "_signature",
              "type": "bytes"
            }
          ],
          "name": "recoverSigner",
          "outputs": [
            {
              "internalType": "address",
              "name": "",
              "type": "address"
            }
          ],
          "stateMutability": "pure",
          "type": "function"
        },
        {
          "inputs": [],
          "name": "returnWinner",
          "outputs": [
            {
              "internalType": "address",
              "name": "",
              "type": "address"
            }
          ],
          "stateMutability": "view",
          "type": "function"
        },
        {
          "inputs": [
            {
              "internalType": "bytes",
              "name": "sig",
              "type": "bytes"
            }
          ],
          "name": "splitSignature",
          "outputs": [
            {
              "internalType": "bytes32",
              "name": "r",
              "type": "bytes32"
            },
            {
              "internalType": "bytes32",
              "name": "s",
              "type": "bytes32"
            },
            {
              "internalType": "uint8",
              "name": "v",
              "type": "uint8"
            }
          ],
          "stateMutability": "pure",
          "type": "function"
        },
        {
          "inputs": [],
          "name": "timeout",
          "outputs": [
            {
              "internalType": "uint256",
              "name": "",
              "type": "uint256"
            }
          ],
          "stateMutability": "view",
          "type": "function"
        },
        {
          "inputs": [
            {
              "internalType": "bytes32",
              "name": "_board",
              "type": "bytes32"
            },
            {
              "internalType": "bytes32",
              "name": "_boardBefore",
              "type": "bytes32"
            },
            {
              "internalType": "bytes",
              "name": "_challenger",
              "type": "bytes"
            },
            {
              "internalType": "bytes",
              "name": "_challenged",
              "type": "bytes"
            }
          ],
          "name": "timeoutChallenge",
          "outputs": [
            {
              "internalType": "bool",
              "name": "",
              "type": "bool"
            }
          ],
          "stateMutability": "nonpayable",
          "type": "function"
        },
        {
          "inputs": [
            {
              "internalType": "uint256[]",
              "name": "_num",
              "type": "uint256[]"
            },
            {
              "internalType": "bytes32",
              "name": "_board",
              "type": "bytes32"
            },
            {
              "internalType": "bytes",
              "name": "_signature1",
              "type": "bytes"
            },
            {
              "internalType": "bytes",
              "name": "_signature2",
              "type": "bytes"
            }
          ],
          "name": "verify",
          "outputs": [
            {
              "internalType": "bool",
              "name": "",
              "type": "bool"
            }
          ],
          "stateMutability": "nonpayable",
          "type": "function"
        },
        {
          "inputs": [],
          "name": "winner",
          "outputs": [
            {
              "internalType": "address",
              "name": "",
              "type": "address"
            }
          ],
          "stateMutability": "view",
          "type": "function"
        }
      ],
      "evm": {
        "bytecode": {
          "linkReferences": {},
          "object": "608060405266470de4df82000034101561001857600080fd5b34600555600080546001600160a01b031916331790556117978061003d6000396000f3fe6080604052600436106100fe5760003560e01c8063a7bb580311610095578063dfbf53ae11610064578063dfbf53ae14610282578063ee51c20f146102a2578063f56f48f2146102d2578063f78f1d44146102e7578063ff893e0d1461030757600080fd5b8063a7bb580314610200578063b688a3631461023e578063d2501b9c14610246578063ded099781461026457600080fd5b806370dea79a116100d157806370dea79a1461018a5780638da5cb5b146101a057806393b6db5a146101c057806397aba7f9146101e057600080fd5b80630e1da6c31461010357806311610c251461011a5780633744734d146101435780634b8934e814610158575b600080fd5b34801561010f57600080fd5b50610118610327565b005b34801561012657600080fd5b5061013060055481565b6040519081526020015b60405180910390f35b34801561014f57600080fd5b50610118610404565b34801561016457600080fd5b506000546001600160a01b03165b6040516001600160a01b03909116815260200161013a565b34801561019657600080fd5b5061013060065481565b3480156101ac57600080fd5b50600054610172906001600160a01b031681565b3480156101cc57600080fd5b506101306101db3660046113db565b61044c565b3480156101ec57600080fd5b506101726101fb3660046115e0565b61047f565b34801561020c57600080fd5b5061022061021b366004611625565b6104fe565b60408051938452602084019290925260ff169082015260600161013a565b610118610572565b34801561025257600080fd5b506001546001600160a01b0316610172565b34801561027057600080fd5b506002546001600160a01b0316610172565b34801561028e57600080fd5b50600154610172906001600160a01b031681565b3480156102ae57600080fd5b506102c26102bd3660046114af565b6105aa565b604051901515815260200161013a565b3480156102de57600080fd5b50610130603c81565b3480156102f357600080fd5b506102c261030236600461156c565b610667565b34801561031357600080fd5b506102c261032236600461141b565b610827565b42600654111561033657600080fd5b6004546001600160a01b031661034b57600080fd5b600454600180546001600160a01b0319166001600160a01b039092169182179055604051479160009183908381818185875af1925050503d80600081146103ae576040519150601f19603f3d011682016040523d82523d6000602084013e6103b3565b606091505b50509050806104005760405162461bcd60e51b81526020600482015260146024820152732330b4b632b2103a379039b2b7321022ba3432b960611b60448201526064015b60405180910390fd5b5050565b6003546001600160a01b0316331461041b57600080fd5b426006541161042957600080fd5b600380546001600160a01b03199081169091556004805490911690556000600655565b60008282604051602001610461929190611660565b60405160208183030381529060405280519060200120905092915050565b60008060008061048e856104fe565b6040805160008152602081018083528b905260ff8316918101919091526060810184905260808101839052929550909350915060019060a0016020604051602081039080840390855afa1580156104e9573d6000803e3d6000fd5b5050604051601f190151979650505050505050565b600080600083516041146105545760405162461bcd60e51b815260206004820152601860248201527f496e76616c6964207369676e6174757265206c656e677468000000000000000060448201526064016103f7565b50505060208101516040820151606090920151909260009190911a90565b600554341461058057600080fd5b6002546001600160a01b03161561059657600080fd5b600280546001600160a01b03191633179055565b600082815b835181101561065c5760008482815181106105da57634e487b7160e01b600052603260045260246000fd5b6020026020010151905080831161061c576040805160208101859052908101829052606001604051602081830303815290604052805190602001209250610649565b60408051602081018390529081018490526060016040516020818303038152906040528051906020012092505b50806106548161171a565b9150506105af565b509093149392505050565b600060065460001461067857600080fd5b6001546001600160a01b03161561068e57600080fd5b6000546001600160a01b0316331415610750576000546001600160a01b03166106b7868561047f565b6001600160a01b0316146106dd5760405162461bcd60e51b81526004016103f79061169a565b6002546001600160a01b03166106f3858461047f565b6001600160a01b0316146107195760405162461bcd60e51b81526004016103f79061169a565b600254600380546001600160a01b039283166001600160a01b0319918216179091556000546004805491909316911617905561080e565b6002546001600160a01b031633141561080e576002546001600160a01b0316610779868561047f565b6001600160a01b03161461079f5760405162461bcd60e51b81526004016103f79061169a565b6000546001600160a01b03166107b5858461047f565b6001600160a01b0316146107db5760405162461bcd60e51b81526004016103f79061169a565b600054600380546001600160a01b039283166001600160a01b031991821617909155600254600480549190931691161790555b610819603c42611702565b600655506001949350505050565b600080546001600160a01b031661083e858561047f565b6001600160a01b0316146108645760405162461bcd60e51b81526004016103f79061169a565b6002546001600160a01b031661087a858461047f565b6001600160a01b0316146108a05760405162461bcd60e51b81526004016103f79061169a565b6001546001600160a01b0316156108b657600080fd5b858560008181106108d757634e487b7160e01b600052603260045260246000fd5b90506020020135600014801561091457508585600181811061090957634e487b7160e01b600052603260045260246000fd5b905060200201356000145b801561094757508585600281811061093c57634e487b7160e01b600052603260045260246000fd5b905060200201356000145b806109de57508585600381811061096e57634e487b7160e01b600052603260045260246000fd5b9050602002013560001480156109ab5750858560048181106109a057634e487b7160e01b600052603260045260246000fd5b905060200201356000145b80156109de5750858560058181106109d357634e487b7160e01b600052603260045260246000fd5b905060200201356000145b80610a75575085856006818110610a0557634e487b7160e01b600052603260045260246000fd5b905060200201356000148015610a42575085856007818110610a3757634e487b7160e01b600052603260045260246000fd5b905060200201356000145b8015610a75575085856008818110610a6a57634e487b7160e01b600052603260045260246000fd5b905060200201356000145b80610b0c575085856000818110610a9c57634e487b7160e01b600052603260045260246000fd5b905060200201356000148015610ad9575085856004818110610ace57634e487b7160e01b600052603260045260246000fd5b905060200201356000145b8015610b0c575085856008818110610b0157634e487b7160e01b600052603260045260246000fd5b905060200201356000145b80610ba3575085856006818110610b3357634e487b7160e01b600052603260045260246000fd5b905060200201356000148015610b70575085856004818110610b6557634e487b7160e01b600052603260045260246000fd5b905060200201356000145b8015610ba3575085856002818110610b9857634e487b7160e01b600052603260045260246000fd5b905060200201356000145b80610c3a575085856000818110610bca57634e487b7160e01b600052603260045260246000fd5b905060200201356000148015610c07575085856003818110610bfc57634e487b7160e01b600052603260045260246000fd5b905060200201356000145b8015610c3a575085856006818110610c2f57634e487b7160e01b600052603260045260246000fd5b905060200201356000145b80610cd1575085856001818110610c6157634e487b7160e01b600052603260045260246000fd5b905060200201356000148015610c9e575085856004818110610c9357634e487b7160e01b600052603260045260246000fd5b905060200201356000145b8015610cd1575085856007818110610cc657634e487b7160e01b600052603260045260246000fd5b905060200201356000145b80610d68575085856002818110610cf857634e487b7160e01b600052603260045260246000fd5b905060200201356000148015610d35575085856005818110610d2a57634e487b7160e01b600052603260045260246000fd5b905060200201356000145b8015610d68575085856008818110610d5d57634e487b7160e01b600052603260045260246000fd5b905060200201356000145b15610e2a5760008054600180546001600160a01b0319166001600160a01b0390921691821790556040514792919083905b60006040518083038185875af1925050503d8060008114610dd6576040519150601f19603f3d011682016040523d82523d6000602084013e610ddb565b606091505b5050905080610e235760405162461bcd60e51b81526020600482015260146024820152732330b4b632b2103a379039b2b7321022ba3432b960611b60448201526064016103f7565b5050611319565b85856000818110610e4b57634e487b7160e01b600052603260045260246000fd5b905060200201356002148015610e88575085856001818110610e7d57634e487b7160e01b600052603260045260246000fd5b905060200201356002145b8015610ebb575085856002818110610eb057634e487b7160e01b600052603260045260246000fd5b905060200201356002145b80610f52575085856003818110610ee257634e487b7160e01b600052603260045260246000fd5b905060200201356002148015610f1f575085856004818110610f1457634e487b7160e01b600052603260045260246000fd5b905060200201356002145b8015610f52575085856005818110610f4757634e487b7160e01b600052603260045260246000fd5b905060200201356002145b80610fe9575085856006818110610f7957634e487b7160e01b600052603260045260246000fd5b905060200201356002148015610fb6575085856007818110610fab57634e487b7160e01b600052603260045260246000fd5b905060200201356002145b8015610fe9575085856008818110610fde57634e487b7160e01b600052603260045260246000fd5b905060200201356002145b8061108057508585600081811061101057634e487b7160e01b600052603260045260246000fd5b90506020020135600214801561104d57508585600481811061104257634e487b7160e01b600052603260045260246000fd5b905060200201356002145b801561108057508585600881811061107557634e487b7160e01b600052603260045260246000fd5b905060200201356002145b806111175750858560068181106110a757634e487b7160e01b600052603260045260246000fd5b9050602002013560021480156110e45750858560048181106110d957634e487b7160e01b600052603260045260246000fd5b905060200201356002145b801561111757508585600281811061110c57634e487b7160e01b600052603260045260246000fd5b905060200201356002145b806111ae57508585600081811061113e57634e487b7160e01b600052603260045260246000fd5b90506020020135600214801561117b57508585600381811061117057634e487b7160e01b600052603260045260246000fd5b905060200201356002145b80156111ae5750858560068181106111a357634e487b7160e01b600052603260045260246000fd5b905060200201356002145b806112455750858560018181106111d557634e487b7160e01b600052603260045260246000fd5b90506020020135600214801561121257508585600481811061120757634e487b7160e01b600052603260045260246000fd5b905060200201356002145b801561124557508585600781811061123a57634e487b7160e01b600052603260045260246000fd5b905060200201356002145b806112dc57508585600281811061126c57634e487b7160e01b600052603260045260246000fd5b9050602002013560021480156112a957508585600581811061129e57634e487b7160e01b600052603260045260246000fd5b905060200201356002145b80156112dc5750858560088181106112d157634e487b7160e01b600052603260045260246000fd5b905060200201356002145b1561131157600254600180546001600160a01b0319166001600160a01b03909216918217905560405147916000918390610d99565b50600061131d565b5060015b95945050505050565b60008083601f840112611337578182fd5b50813567ffffffffffffffff81111561134e578182fd5b6020830191508360208260051b850101111561136957600080fd5b9250929050565b600082601f830112611380578081fd5b813567ffffffffffffffff81111561139a5761139a61174b565b6113ad601f8201601f19166020016116d1565b8181528460208386010111156113c1578283fd5b816020850160208301379081016020019190915292915050565b600080602083850312156113ed578182fd5b823567ffffffffffffffff811115611403578283fd5b61140f85828601611326565b90969095509350505050565b600080600080600060808688031215611432578081fd5b853567ffffffffffffffff80821115611449578283fd5b61145589838a01611326565b9097509550602088013594506040880135915080821115611474578283fd5b61148089838a01611370565b93506060880135915080821115611495578283fd5b506114a288828901611370565b9150509295509295909350565b6000806000606084860312156114c3578283fd5b833592506020808501359250604085013567ffffffffffffffff808211156114e9578384fd5b818701915087601f8301126114fc578384fd5b81358181111561150e5761150e61174b565b8060051b915061151f8483016116d1565b8181528481019084860184860187018c1015611539578788fd5b8795505b8386101561155b57803583526001959095019491860191860161153d565b508096505050505050509250925092565b60008060008060808587031215611581578384fd5b8435935060208501359250604085013567ffffffffffffffff808211156115a6578384fd5b6115b288838901611370565b935060608701359150808211156115c7578283fd5b506115d487828801611370565b91505092959194509250565b600080604083850312156115f2578182fd5b82359150602083013567ffffffffffffffff81111561160f578182fd5b61161b85828601611370565b9150509250929050565b600060208284031215611636578081fd5b813567ffffffffffffffff81111561164c578182fd5b61165884828501611370565b949350505050565b6020808252810182905260006001600160fb1b0383111561167f578081fd5b8260051b808560408501379190910160400190815292915050565b6020808252601a908201527f454f415665726966793a205369676e6564206d69736d61746368000000000000604082015260600190565b604051601f8201601f1916810167ffffffffffffffff811182821017156116fa576116fa61174b565b604052919050565b6000821982111561171557611715611735565b500190565b600060001982141561172e5761172e611735565b5060010190565b634e487b7160e01b600052601160045260246000fd5b634e487b7160e01b600052604160045260246000fdfea2646970667358221220569a26835b8cc55d9da99e50e0e9cab7149cf440f60d30b807967c8ce9341bd764736f6c63430008040033",
          "opcodes": "PUSH1 0x80 PUSH1 0x40 MSTORE PUSH7 0x470DE4DF820000 CALLVALUE LT ISZERO PUSH2 0x18 JUMPI PUSH1 0x0 DUP1 REVERT JUMPDEST CALLVALUE PUSH1 0x5 SSTORE PUSH1 0x0 DUP1 SLOAD PUSH1 0x1 PUSH1 0x1 PUSH1 0xA0 SHL SUB NOT AND CALLER OR SWAP1 SSTORE PUSH2 0x1797 DUP1 PUSH2 0x3D PUSH1 0x0 CODECOPY PUSH1 0x0 RETURN INVALID PUSH1 0x80 PUSH1 0x40 MSTORE PUSH1 0x4 CALLDATASIZE LT PUSH2 0xFE JUMPI PUSH1 0x0 CALLDATALOAD PUSH1 0xE0 SHR DUP1 PUSH4 0xA7BB5803 GT PUSH2 0x95 JUMPI DUP1 PUSH4 0xDFBF53AE GT PUSH2 0x64 JUMPI DUP1 PUSH4 0xDFBF53AE EQ PUSH2 0x282 JUMPI DUP1 PUSH4 0xEE51C20F EQ PUSH2 0x2A2 JUMPI DUP1 PUSH4 0xF56F48F2 EQ PUSH2 0x2D2 JUMPI DUP1 PUSH4 0xF78F1D44 EQ PUSH2 0x2E7 JUMPI DUP1 PUSH4 0xFF893E0D EQ PUSH2 0x307 JUMPI PUSH1 0x0 DUP1 REVERT JUMPDEST DUP1 PUSH4 0xA7BB5803 EQ PUSH2 0x200 JUMPI DUP1 PUSH4 0xB688A363 EQ PUSH2 0x23E JUMPI DUP1 PUSH4 0xD2501B9C EQ PUSH2 0x246 JUMPI DUP1 PUSH4 0xDED09978 EQ PUSH2 0x264 JUMPI PUSH1 0x0 DUP1 REVERT JUMPDEST DUP1 PUSH4 0x70DEA79A GT PUSH2 0xD1 JUMPI DUP1 PUSH4 0x70DEA79A EQ PUSH2 0x18A JUMPI DUP1 PUSH4 0x8DA5CB5B EQ PUSH2 0x1A0 JUMPI DUP1 PUSH4 0x93B6DB5A EQ PUSH2 0x1C0 JUMPI DUP1 PUSH4 0x97ABA7F9 EQ PUSH2 0x1E0 JUMPI PUSH1 0x0 DUP1 REVERT JUMPDEST DUP1 PUSH4 0xE1DA6C3 EQ PUSH2 0x103 JUMPI DUP1 PUSH4 0x11610C25 EQ PUSH2 0x11A JUMPI DUP1 PUSH4 0x3744734D EQ PUSH2 0x143 JUMPI DUP1 PUSH4 0x4B8934E8 EQ PUSH2 0x158 JUMPI JUMPDEST PUSH1 0x0 DUP1 REVERT JUMPDEST CALLVALUE DUP1 ISZERO PUSH2 0x10F JUMPI PUSH1 0x0 DUP1 REVERT JUMPDEST POP PUSH2 0x118 PUSH2 0x327 JUMP JUMPDEST STOP JUMPDEST CALLVALUE DUP1 ISZERO PUSH2 0x126 JUMPI PUSH1 0x0 DUP1 REVERT JUMPDEST POP PUSH2 0x130 PUSH1 0x5 SLOAD DUP2 JUMP JUMPDEST PUSH1 0x40 MLOAD SWAP1 DUP2 MSTORE PUSH1 0x20 ADD JUMPDEST PUSH1 0x40 MLOAD DUP1 SWAP2 SUB SWAP1 RETURN JUMPDEST CALLVALUE DUP1 ISZERO PUSH2 0x14F JUMPI PUSH1 0x0 DUP1 REVERT JUMPDEST POP PUSH2 0x118 PUSH2 0x404 JUMP JUMPDEST CALLVALUE DUP1 ISZERO PUSH2 0x164 JUMPI PUSH1 0x0 DUP1 REVERT JUMPDEST POP PUSH1 0x0 SLOAD PUSH1 0x1 PUSH1 0x1 PUSH1 0xA0 SHL SUB AND JUMPDEST PUSH1 0x40 MLOAD PUSH1 0x1 PUSH1 0x1 PUSH1 0xA0 SHL SUB SWAP1 SWAP2 AND DUP2 MSTORE PUSH1 0x20 ADD PUSH2 0x13A JUMP JUMPDEST CALLVALUE DUP1 ISZERO PUSH2 0x196 JUMPI PUSH1 0x0 DUP1 REVERT JUMPDEST POP PUSH2 0x130 PUSH1 0x6 SLOAD DUP2 JUMP JUMPDEST CALLVALUE DUP1 ISZERO PUSH2 0x1AC JUMPI PUSH1 0x0 DUP1 REVERT JUMPDEST POP PUSH1 0x0 SLOAD PUSH2 0x172 SWAP1 PUSH1 0x1 PUSH1 0x1 PUSH1 0xA0 SHL SUB AND DUP2 JUMP JUMPDEST CALLVALUE DUP1 ISZERO PUSH2 0x1CC JUMPI PUSH1 0x0 DUP1 REVERT JUMPDEST POP PUSH2 0x130 PUSH2 0x1DB CALLDATASIZE PUSH1 0x4 PUSH2 0x13DB JUMP JUMPDEST PUSH2 0x44C JUMP JUMPDEST CALLVALUE DUP1 ISZERO PUSH2 0x1EC JUMPI PUSH1 0x0 DUP1 REVERT JUMPDEST POP PUSH2 0x172 PUSH2 0x1FB CALLDATASIZE PUSH1 0x4 PUSH2 0x15E0 JUMP JUMPDEST PUSH2 0x47F JUMP JUMPDEST CALLVALUE DUP1 ISZERO PUSH2 0x20C JUMPI PUSH1 0x0 DUP1 REVERT JUMPDEST POP PUSH2 0x220 PUSH2 0x21B CALLDATASIZE PUSH1 0x4 PUSH2 0x1625 JUMP JUMPDEST PUSH2 0x4FE JUMP JUMPDEST PUSH1 0x40 DUP1 MLOAD SWAP4 DUP5 MSTORE PUSH1 0x20 DUP5 ADD SWAP3 SWAP1 SWAP3 MSTORE PUSH1 0xFF AND SWAP1 DUP3 ADD MSTORE PUSH1 0x60 ADD PUSH2 0x13A JUMP JUMPDEST PUSH2 0x118 PUSH2 0x572 JUMP JUMPDEST CALLVALUE DUP1 ISZERO PUSH2 0x252 JUMPI PUSH1 0x0 DUP1 REVERT JUMPDEST POP PUSH1 0x1 SLOAD PUSH1 0x1 PUSH1 0x1 PUSH1 0xA0 SHL SUB AND PUSH2 0x172 JUMP JUMPDEST CALLVALUE DUP1 ISZERO PUSH2 0x270 JUMPI PUSH1 0x0 DUP1 REVERT JUMPDEST POP PUSH1 0x2 SLOAD PUSH1 0x1 PUSH1 0x1 PUSH1 0xA0 SHL SUB AND PUSH2 0x172 JUMP JUMPDEST CALLVALUE DUP1 ISZERO PUSH2 0x28E JUMPI PUSH1 0x0 DUP1 REVERT JUMPDEST POP PUSH1 0x1 SLOAD PUSH2 0x172 SWAP1 PUSH1 0x1 PUSH1 0x1 PUSH1 0xA0 SHL SUB AND DUP2 JUMP JUMPDEST CALLVALUE DUP1 ISZERO PUSH2 0x2AE JUMPI PUSH1 0x0 DUP1 REVERT JUMPDEST POP PUSH2 0x2C2 PUSH2 0x2BD CALLDATASIZE PUSH1 0x4 PUSH2 0x14AF JUMP JUMPDEST PUSH2 0x5AA JUMP JUMPDEST PUSH1 0x40 MLOAD SWAP1 ISZERO ISZERO DUP2 MSTORE PUSH1 0x20 ADD PUSH2 0x13A JUMP JUMPDEST CALLVALUE DUP1 ISZERO PUSH2 0x2DE JUMPI PUSH1 0x0 DUP1 REVERT JUMPDEST POP PUSH2 0x130 PUSH1 0x3C DUP2 JUMP JUMPDEST CALLVALUE DUP1 ISZERO PUSH2 0x2F3 JUMPI PUSH1 0x0 DUP1 REVERT JUMPDEST POP PUSH2 0x2C2 PUSH2 0x302 CALLDATASIZE PUSH1 0x4 PUSH2 0x156C JUMP JUMPDEST PUSH2 0x667 JUMP JUMPDEST CALLVALUE DUP1 ISZERO PUSH2 0x313 JUMPI PUSH1 0x0 DUP1 REVERT JUMPDEST POP PUSH2 0x2C2 PUSH2 0x322 CALLDATASIZE PUSH1 0x4 PUSH2 0x141B JUMP JUMPDEST PUSH2 0x827 JUMP JUMPDEST TIMESTAMP PUSH1 0x6 SLOAD GT ISZERO PUSH2 0x336 JUMPI PUSH1 0x0 DUP1 REVERT JUMPDEST PUSH1 0x4 SLOAD PUSH1 0x1 PUSH1 0x1 PUSH1 0xA0 SHL SUB AND PUSH2 0x34B JUMPI PUSH1 0x0 DUP1 REVERT JUMPDEST PUSH1 0x4 SLOAD PUSH1 0x1 DUP1 SLOAD PUSH1 0x1 PUSH1 0x1 PUSH1 0xA0 SHL SUB NOT AND PUSH1 0x1 PUSH1 0x1 PUSH1 0xA0 SHL SUB SWAP1 SWAP3 AND SWAP2 DUP3 OR SWAP1 SSTORE PUSH1 0x40 MLOAD SELFBALANCE SWAP2 PUSH1 0x0 SWAP2 DUP4 SWAP1 DUP4 DUP2 DUP2 DUP2 DUP6 DUP8 GAS CALL SWAP3 POP POP POP RETURNDATASIZE DUP1 PUSH1 0x0 DUP2 EQ PUSH2 0x3AE JUMPI PUSH1 0x40 MLOAD SWAP2 POP PUSH1 0x1F NOT PUSH1 0x3F RETURNDATASIZE ADD AND DUP3 ADD PUSH1 0x40 MSTORE RETURNDATASIZE DUP3 MSTORE RETURNDATASIZE PUSH1 0x0 PUSH1 0x20 DUP5 ADD RETURNDATACOPY PUSH2 0x3B3 JUMP JUMPDEST PUSH1 0x60 SWAP2 POP JUMPDEST POP POP SWAP1 POP DUP1 PUSH2 0x400 JUMPI PUSH1 0x40 MLOAD PUSH3 0x461BCD PUSH1 0xE5 SHL DUP2 MSTORE PUSH1 0x20 PUSH1 0x4 DUP3 ADD MSTORE PUSH1 0x14 PUSH1 0x24 DUP3 ADD MSTORE PUSH20 0x2330B4B632B2103A379039B2B7321022BA3432B9 PUSH1 0x61 SHL PUSH1 0x44 DUP3 ADD MSTORE PUSH1 0x64 ADD JUMPDEST PUSH1 0x40 MLOAD DUP1 SWAP2 SUB SWAP1 REVERT JUMPDEST POP POP JUMP JUMPDEST PUSH1 0x3 SLOAD PUSH1 0x1 PUSH1 0x1 PUSH1 0xA0 SHL SUB AND CALLER EQ PUSH2 0x41B JUMPI PUSH1 0x0 DUP1 REVERT JUMPDEST TIMESTAMP PUSH1 0x6 SLOAD GT PUSH2 0x429 JUMPI PUSH1 0x0 DUP1 REVERT JUMPDEST PUSH1 0x3 DUP1 SLOAD PUSH1 0x1 PUSH1 0x1 PUSH1 0xA0 SHL SUB NOT SWAP1 DUP2 AND SWAP1 SWAP2 SSTORE PUSH1 0x4 DUP1 SLOAD SWAP1 SWAP2 AND SWAP1 SSTORE PUSH1 0x0 PUSH1 0x6 SSTORE JUMP JUMPDEST PUSH1 0x0 DUP3 DUP3 PUSH1 0x40 MLOAD PUSH1 0x20 ADD PUSH2 0x461 SWAP3 SWAP2 SWAP1 PUSH2 0x1660 JUMP JUMPDEST PUSH1 0x40 MLOAD PUSH1 0x20 DUP2 DUP4 SUB SUB DUP2 MSTORE SWAP1 PUSH1 0x40 MSTORE DUP1 MLOAD SWAP1 PUSH1 0x20 ADD KECCAK256 SWAP1 POP SWAP3 SWAP2 POP POP JUMP JUMPDEST PUSH1 0x0 DUP1 PUSH1 0x0 DUP1 PUSH2 0x48E DUP6 PUSH2 0x4FE JUMP JUMPDEST PUSH1 0x40 DUP1 MLOAD PUSH1 0x0 DUP2 MSTORE PUSH1 0x20 DUP2 ADD DUP1 DUP4 MSTORE DUP12 SWAP1 MSTORE PUSH1 0xFF DUP4 AND SWAP2 DUP2 ADD SWAP2 SWAP1 SWAP2 MSTORE PUSH1 0x60 DUP2 ADD DUP5 SWAP1 MSTORE PUSH1 0x80 DUP2 ADD DUP4 SWAP1 MSTORE SWAP3 SWAP6 POP SWAP1 SWAP4 POP SWAP2 POP PUSH1 0x1 SWAP1 PUSH1 0xA0 ADD PUSH1 0x20 PUSH1 0x40 MLOAD PUSH1 0x20 DUP2 SUB SWAP1 DUP1 DUP5 SUB SWAP1 DUP6 GAS STATICCALL ISZERO DUP1 ISZERO PUSH2 0x4E9 JUMPI RETURNDATASIZE PUSH1 0x0 DUP1 RETURNDATACOPY RETURNDATASIZE PUSH1 0x0 REVERT JUMPDEST POP POP PUSH1 0x40 MLOAD PUSH1 0x1F NOT ADD MLOAD SWAP8 SWAP7 POP POP POP POP POP POP POP JUMP JUMPDEST PUSH1 0x0 DUP1 PUSH1 0x0 DUP4 MLOAD PUSH1 0x41 EQ PUSH2 0x554 JUMPI PUSH1 0x40 MLOAD PUSH3 0x461BCD PUSH1 0xE5 SHL DUP2 MSTORE PUSH1 0x20 PUSH1 0x4 DUP3 ADD MSTORE PUSH1 0x18 PUSH1 0x24 DUP3 ADD MSTORE PUSH32 0x496E76616C6964207369676E6174757265206C656E6774680000000000000000 PUSH1 0x44 DUP3 ADD MSTORE PUSH1 0x64 ADD PUSH2 0x3F7 JUMP JUMPDEST POP POP POP PUSH1 0x20 DUP2 ADD MLOAD PUSH1 0x40 DUP3 ADD MLOAD PUSH1 0x60 SWAP1 SWAP3 ADD MLOAD SWAP1 SWAP3 PUSH1 0x0 SWAP2 SWAP1 SWAP2 BYTE SWAP1 JUMP JUMPDEST PUSH1 0x5 SLOAD CALLVALUE EQ PUSH2 0x580 JUMPI PUSH1 0x0 DUP1 REVERT JUMPDEST PUSH1 0x2 SLOAD PUSH1 0x1 PUSH1 0x1 PUSH1 0xA0 SHL SUB AND ISZERO PUSH2 0x596 JUMPI PUSH1 0x0 DUP1 REVERT JUMPDEST PUSH1 0x2 DUP1 SLOAD PUSH1 0x1 PUSH1 0x1 PUSH1 0xA0 SHL SUB NOT AND CALLER OR SWAP1 SSTORE JUMP JUMPDEST PUSH1 0x0 DUP3 DUP2 JUMPDEST DUP4 MLOAD DUP2 LT ISZERO PUSH2 0x65C JUMPI PUSH1 0x0 DUP5 DUP3 DUP2 MLOAD DUP2 LT PUSH2 0x5DA JUMPI PUSH4 0x4E487B71 PUSH1 0xE0 SHL PUSH1 0x0 MSTORE PUSH1 0x32 PUSH1 0x4 MSTORE PUSH1 0x24 PUSH1 0x0 REVERT JUMPDEST PUSH1 0x20 MUL PUSH1 0x20 ADD ADD MLOAD SWAP1 POP DUP1 DUP4 GT PUSH2 0x61C JUMPI PUSH1 0x40 DUP1 MLOAD PUSH1 0x20 DUP2 ADD DUP6 SWAP1 MSTORE SWAP1 DUP2 ADD DUP3 SWAP1 MSTORE PUSH1 0x60 ADD PUSH1 0x40 MLOAD PUSH1 0x20 DUP2 DUP4 SUB SUB DUP2 MSTORE SWAP1 PUSH1 0x40 MSTORE DUP1 MLOAD SWAP1 PUSH1 0x20 ADD KECCAK256 SWAP3 POP PUSH2 0x649 JUMP JUMPDEST PUSH1 0x40 DUP1 MLOAD PUSH1 0x20 DUP2 ADD DUP4 SWAP1 MSTORE SWAP1 DUP2 ADD DUP5 SWAP1 MSTORE PUSH1 0x60 ADD PUSH1 0x40 MLOAD PUSH1 0x20 DUP2 DUP4 SUB SUB DUP2 MSTORE SWAP1 PUSH1 0x40 MSTORE DUP1 MLOAD SWAP1 PUSH1 0x20 ADD KECCAK256 SWAP3 POP JUMPDEST POP DUP1 PUSH2 0x654 DUP2 PUSH2 0x171A JUMP JUMPDEST SWAP2 POP POP PUSH2 0x5AF JUMP JUMPDEST POP SWAP1 SWAP4 EQ SWAP4 SWAP3 POP POP POP JUMP JUMPDEST PUSH1 0x0 PUSH1 0x6 SLOAD PUSH1 0x0 EQ PUSH2 0x678 JUMPI PUSH1 0x0 DUP1 REVERT JUMPDEST PUSH1 0x1 SLOAD PUSH1 0x1 PUSH1 0x1 PUSH1 0xA0 SHL SUB AND ISZERO PUSH2 0x68E JUMPI PUSH1 0x0 DUP1 REVERT JUMPDEST PUSH1 0x0 SLOAD PUSH1 0x1 PUSH1 0x1 PUSH1 0xA0 SHL SUB AND CALLER EQ ISZERO PUSH2 0x750 JUMPI PUSH1 0x0 SLOAD PUSH1 0x1 PUSH1 0x1 PUSH1 0xA0 SHL SUB AND PUSH2 0x6B7 DUP7 DUP6 PUSH2 0x47F JUMP JUMPDEST PUSH1 0x1 PUSH1 0x1 PUSH1 0xA0 SHL SUB AND EQ PUSH2 0x6DD JUMPI PUSH1 0x40 MLOAD PUSH3 0x461BCD PUSH1 0xE5 SHL DUP2 MSTORE PUSH1 0x4 ADD PUSH2 0x3F7 SWAP1 PUSH2 0x169A JUMP JUMPDEST PUSH1 0x2 SLOAD PUSH1 0x1 PUSH1 0x1 PUSH1 0xA0 SHL SUB AND PUSH2 0x6F3 DUP6 DUP5 PUSH2 0x47F JUMP JUMPDEST PUSH1 0x1 PUSH1 0x1 PUSH1 0xA0 SHL SUB AND EQ PUSH2 0x719 JUMPI PUSH1 0x40 MLOAD PUSH3 0x461BCD PUSH1 0xE5 SHL DUP2 MSTORE PUSH1 0x4 ADD PUSH2 0x3F7 SWAP1 PUSH2 0x169A JUMP JUMPDEST PUSH1 0x2 SLOAD PUSH1 0x3 DUP1 SLOAD PUSH1 0x1 PUSH1 0x1 PUSH1 0xA0 SHL SUB SWAP3 DUP4 AND PUSH1 0x1 PUSH1 0x1 PUSH1 0xA0 SHL SUB NOT SWAP2 DUP3 AND OR SWAP1 SWAP2 SSTORE PUSH1 0x0 SLOAD PUSH1 0x4 DUP1 SLOAD SWAP2 SWAP1 SWAP4 AND SWAP2 AND OR SWAP1 SSTORE PUSH2 0x80E JUMP JUMPDEST PUSH1 0x2 SLOAD PUSH1 0x1 PUSH1 0x1 PUSH1 0xA0 SHL SUB AND CALLER EQ ISZERO PUSH2 0x80E JUMPI PUSH1 0x2 SLOAD PUSH1 0x1 PUSH1 0x1 PUSH1 0xA0 SHL SUB AND PUSH2 0x779 DUP7 DUP6 PUSH2 0x47F JUMP JUMPDEST PUSH1 0x1 PUSH1 0x1 PUSH1 0xA0 SHL SUB AND EQ PUSH2 0x79F JUMPI PUSH1 0x40 MLOAD PUSH3 0x461BCD PUSH1 0xE5 SHL DUP2 MSTORE PUSH1 0x4 ADD PUSH2 0x3F7 SWAP1 PUSH2 0x169A JUMP JUMPDEST PUSH1 0x0 SLOAD PUSH1 0x1 PUSH1 0x1 PUSH1 0xA0 SHL SUB AND PUSH2 0x7B5 DUP6 DUP5 PUSH2 0x47F JUMP JUMPDEST PUSH1 0x1 PUSH1 0x1 PUSH1 0xA0 SHL SUB AND EQ PUSH2 0x7DB JUMPI PUSH1 0x40 MLOAD PUSH3 0x461BCD PUSH1 0xE5 SHL DUP2 MSTORE PUSH1 0x4 ADD PUSH2 0x3F7 SWAP1 PUSH2 0x169A JUMP JUMPDEST PUSH1 0x0 SLOAD PUSH1 0x3 DUP1 SLOAD PUSH1 0x1 PUSH1 0x1 PUSH1 0xA0 SHL SUB SWAP3 DUP4 AND PUSH1 0x1 PUSH1 0x1 PUSH1 0xA0 SHL SUB NOT SWAP2 DUP3 AND OR SWAP1 SWAP2 SSTORE PUSH1 0x2 SLOAD PUSH1 0x4 DUP1 SLOAD SWAP2 SWAP1 SWAP4 AND SWAP2 AND OR SWAP1 SSTORE JUMPDEST PUSH2 0x819 PUSH1 0x3C TIMESTAMP PUSH2 0x1702 JUMP JUMPDEST PUSH1 0x6 SSTORE POP PUSH1 0x1 SWAP5 SWAP4 POP POP POP POP JUMP JUMPDEST PUSH1 0x0 DUP1 SLOAD PUSH1 0x1 PUSH1 0x1 PUSH1 0xA0 SHL SUB AND PUSH2 0x83E DUP6 DUP6 PUSH2 0x47F JUMP JUMPDEST PUSH1 0x1 PUSH1 0x1 PUSH1 0xA0 SHL SUB AND EQ PUSH2 0x864 JUMPI PUSH1 0x40 MLOAD PUSH3 0x461BCD PUSH1 0xE5 SHL DUP2 MSTORE PUSH1 0x4 ADD PUSH2 0x3F7 SWAP1 PUSH2 0x169A JUMP JUMPDEST PUSH1 0x2 SLOAD PUSH1 0x1 PUSH1 0x1 PUSH1 0xA0 SHL SUB AND PUSH2 0x87A DUP6 DUP5 PUSH2 0x47F JUMP JUMPDEST PUSH1 0x1 PUSH1 0x1 PUSH1 0xA0 SHL SUB AND EQ PUSH2 0x8A0 JUMPI PUSH1 0x40 MLOAD PUSH3 0x461BCD PUSH1 0xE5 SHL DUP2 MSTORE PUSH1 0x4 ADD PUSH2 0x3F7 SWAP1 PUSH2 0x169A JUMP JUMPDEST PUSH1 0x1 SLOAD PUSH1 0x1 PUSH1 0x1 PUSH1 0xA0 SHL SUB AND ISZERO PUSH2 0x8B6 JUMPI PUSH1 0x0 DUP1 REVERT JUMPDEST DUP6 DUP6 PUSH1 0x0 DUP2 DUP2 LT PUSH2 0x8D7 JUMPI PUSH4 0x4E487B71 PUSH1 0xE0 SHL PUSH1 0x0 MSTORE PUSH1 0x32 PUSH1 0x4 MSTORE PUSH1 0x24 PUSH1 0x0 REVERT JUMPDEST SWAP1 POP PUSH1 0x20 MUL ADD CALLDATALOAD PUSH1 0x0 EQ DUP1 ISZERO PUSH2 0x914 JUMPI POP DUP6 DUP6 PUSH1 0x1 DUP2 DUP2 LT PUSH2 0x909 JUMPI PUSH4 0x4E487B71 PUSH1 0xE0 SHL PUSH1 0x0 MSTORE PUSH1 0x32 PUSH1 0x4 MSTORE PUSH1 0x24 PUSH1 0x0 REVERT JUMPDEST SWAP1 POP PUSH1 0x20 MUL ADD CALLDATALOAD PUSH1 0x0 EQ JUMPDEST DUP1 ISZERO PUSH2 0x947 JUMPI POP DUP6 DUP6 PUSH1 0x2 DUP2 DUP2 LT PUSH2 0x93C JUMPI PUSH4 0x4E487B71 PUSH1 0xE0 SHL PUSH1 0x0 MSTORE PUSH1 0x32 PUSH1 0x4 MSTORE PUSH1 0x24 PUSH1 0x0 REVERT JUMPDEST SWAP1 POP PUSH1 0x20 MUL ADD CALLDATALOAD PUSH1 0x0 EQ JUMPDEST DUP1 PUSH2 0x9DE JUMPI POP DUP6 DUP6 PUSH1 0x3 DUP2 DUP2 LT PUSH2 0x96E JUMPI PUSH4 0x4E487B71 PUSH1 0xE0 SHL PUSH1 0x0 MSTORE PUSH1 0x32 PUSH1 0x4 MSTORE PUSH1 0x24 PUSH1 0x0 REVERT JUMPDEST SWAP1 POP PUSH1 0x20 MUL ADD CALLDATALOAD PUSH1 0x0 EQ DUP1 ISZERO PUSH2 0x9AB JUMPI POP DUP6 DUP6 PUSH1 0x4 DUP2 DUP2 LT PUSH2 0x9A0 JUMPI PUSH4 0x4E487B71 PUSH1 0xE0 SHL PUSH1 0x0 MSTORE PUSH1 0x32 PUSH1 0x4 MSTORE PUSH1 0x24 PUSH1 0x0 REVERT JUMPDEST SWAP1 POP PUSH1 0x20 MUL ADD CALLDATALOAD PUSH1 0x0 EQ JUMPDEST DUP1 ISZERO PUSH2 0x9DE JUMPI POP DUP6 DUP6 PUSH1 0x5 DUP2 DUP2 LT PUSH2 0x9D3 JUMPI PUSH4 0x4E487B71 PUSH1 0xE0 SHL PUSH1 0x0 MSTORE PUSH1 0x32 PUSH1 0x4 MSTORE PUSH1 0x24 PUSH1 0x0 REVERT JUMPDEST SWAP1 POP PUSH1 0x20 MUL ADD CALLDATALOAD PUSH1 0x0 EQ JUMPDEST DUP1 PUSH2 0xA75 JUMPI POP DUP6 DUP6 PUSH1 0x6 DUP2 DUP2 LT PUSH2 0xA05 JUMPI PUSH4 0x4E487B71 PUSH1 0xE0 SHL PUSH1 0x0 MSTORE PUSH1 0x32 PUSH1 0x4 MSTORE PUSH1 0x24 PUSH1 0x0 REVERT JUMPDEST SWAP1 POP PUSH1 0x20 MUL ADD CALLDATALOAD PUSH1 0x0 EQ DUP1 ISZERO PUSH2 0xA42 JUMPI POP DUP6 DUP6 PUSH1 0x7 DUP2 DUP2 LT PUSH2 0xA37 JUMPI PUSH4 0x4E487B71 PUSH1 0xE0 SHL PUSH1 0x0 MSTORE PUSH1 0x32 PUSH1 0x4 MSTORE PUSH1 0x24 PUSH1 0x0 REVERT JUMPDEST SWAP1 POP PUSH1 0x20 MUL ADD CALLDATALOAD PUSH1 0x0 EQ JUMPDEST DUP1 ISZERO PUSH2 0xA75 JUMPI POP DUP6 DUP6 PUSH1 0x8 DUP2 DUP2 LT PUSH2 0xA6A JUMPI PUSH4 0x4E487B71 PUSH1 0xE0 SHL PUSH1 0x0 MSTORE PUSH1 0x32 PUSH1 0x4 MSTORE PUSH1 0x24 PUSH1 0x0 REVERT JUMPDEST SWAP1 POP PUSH1 0x20 MUL ADD CALLDATALOAD PUSH1 0x0 EQ JUMPDEST DUP1 PUSH2 0xB0C JUMPI POP DUP6 DUP6 PUSH1 0x0 DUP2 DUP2 LT PUSH2 0xA9C JUMPI PUSH4 0x4E487B71 PUSH1 0xE0 SHL PUSH1 0x0 MSTORE PUSH1 0x32 PUSH1 0x4 MSTORE PUSH1 0x24 PUSH1 0x0 REVERT JUMPDEST SWAP1 POP PUSH1 0x20 MUL ADD CALLDATALOAD PUSH1 0x0 EQ DUP1 ISZERO PUSH2 0xAD9 JUMPI POP DUP6 DUP6 PUSH1 0x4 DUP2 DUP2 LT PUSH2 0xACE JUMPI PUSH4 0x4E487B71 PUSH1 0xE0 SHL PUSH1 0x0 MSTORE PUSH1 0x32 PUSH1 0x4 MSTORE PUSH1 0x24 PUSH1 0x0 REVERT JUMPDEST SWAP1 POP PUSH1 0x20 MUL ADD CALLDATALOAD PUSH1 0x0 EQ JUMPDEST DUP1 ISZERO PUSH2 0xB0C JUMPI POP DUP6 DUP6 PUSH1 0x8 DUP2 DUP2 LT PUSH2 0xB01 JUMPI PUSH4 0x4E487B71 PUSH1 0xE0 SHL PUSH1 0x0 MSTORE PUSH1 0x32 PUSH1 0x4 MSTORE PUSH1 0x24 PUSH1 0x0 REVERT JUMPDEST SWAP1 POP PUSH1 0x20 MUL ADD CALLDATALOAD PUSH1 0x0 EQ JUMPDEST DUP1 PUSH2 0xBA3 JUMPI POP DUP6 DUP6 PUSH1 0x6 DUP2 DUP2 LT PUSH2 0xB33 JUMPI PUSH4 0x4E487B71 PUSH1 0xE0 SHL PUSH1 0x0 MSTORE PUSH1 0x32 PUSH1 0x4 MSTORE PUSH1 0x24 PUSH1 0x0 REVERT JUMPDEST SWAP1 POP PUSH1 0x20 MUL ADD CALLDATALOAD PUSH1 0x0 EQ DUP1 ISZERO PUSH2 0xB70 JUMPI POP DUP6 DUP6 PUSH1 0x4 DUP2 DUP2 LT PUSH2 0xB65 JUMPI PUSH4 0x4E487B71 PUSH1 0xE0 SHL PUSH1 0x0 MSTORE PUSH1 0x32 PUSH1 0x4 MSTORE PUSH1 0x24 PUSH1 0x0 REVERT JUMPDEST SWAP1 POP PUSH1 0x20 MUL ADD CALLDATALOAD PUSH1 0x0 EQ JUMPDEST DUP1 ISZERO PUSH2 0xBA3 JUMPI POP DUP6 DUP6 PUSH1 0x2 DUP2 DUP2 LT PUSH2 0xB98 JUMPI PUSH4 0x4E487B71 PUSH1 0xE0 SHL PUSH1 0x0 MSTORE PUSH1 0x32 PUSH1 0x4 MSTORE PUSH1 0x24 PUSH1 0x0 REVERT JUMPDEST SWAP1 POP PUSH1 0x20 MUL ADD CALLDATALOAD PUSH1 0x0 EQ JUMPDEST DUP1 PUSH2 0xC3A JUMPI POP DUP6 DUP6 PUSH1 0x0 DUP2 DUP2 LT PUSH2 0xBCA JUMPI PUSH4 0x4E487B71 PUSH1 0xE0 SHL PUSH1 0x0 MSTORE PUSH1 0x32 PUSH1 0x4 MSTORE PUSH1 0x24 PUSH1 0x0 REVERT JUMPDEST SWAP1 POP PUSH1 0x20 MUL ADD CALLDATALOAD PUSH1 0x0 EQ DUP1 ISZERO PUSH2 0xC07 JUMPI POP DUP6 DUP6 PUSH1 0x3 DUP2 DUP2 LT PUSH2 0xBFC JUMPI PUSH4 0x4E487B71 PUSH1 0xE0 SHL PUSH1 0x0 MSTORE PUSH1 0x32 PUSH1 0x4 MSTORE PUSH1 0x24 PUSH1 0x0 REVERT JUMPDEST SWAP1 POP PUSH1 0x20 MUL ADD CALLDATALOAD PUSH1 0x0 EQ JUMPDEST DUP1 ISZERO PUSH2 0xC3A JUMPI POP DUP6 DUP6 PUSH1 0x6 DUP2 DUP2 LT PUSH2 0xC2F JUMPI PUSH4 0x4E487B71 PUSH1 0xE0 SHL PUSH1 0x0 MSTORE PUSH1 0x32 PUSH1 0x4 MSTORE PUSH1 0x24 PUSH1 0x0 REVERT JUMPDEST SWAP1 POP PUSH1 0x20 MUL ADD CALLDATALOAD PUSH1 0x0 EQ JUMPDEST DUP1 PUSH2 0xCD1 JUMPI POP DUP6 DUP6 PUSH1 0x1 DUP2 DUP2 LT PUSH2 0xC61 JUMPI PUSH4 0x4E487B71 PUSH1 0xE0 SHL PUSH1 0x0 MSTORE PUSH1 0x32 PUSH1 0x4 MSTORE PUSH1 0x24 PUSH1 0x0 REVERT JUMPDEST SWAP1 POP PUSH1 0x20 MUL ADD CALLDATALOAD PUSH1 0x0 EQ DUP1 ISZERO PUSH2 0xC9E JUMPI POP DUP6 DUP6 PUSH1 0x4 DUP2 DUP2 LT PUSH2 0xC93 JUMPI PUSH4 0x4E487B71 PUSH1 0xE0 SHL PUSH1 0x0 MSTORE PUSH1 0x32 PUSH1 0x4 MSTORE PUSH1 0x24 PUSH1 0x0 REVERT JUMPDEST SWAP1 POP PUSH1 0x20 MUL ADD CALLDATALOAD PUSH1 0x0 EQ JUMPDEST DUP1 ISZERO PUSH2 0xCD1 JUMPI POP DUP6 DUP6 PUSH1 0x7 DUP2 DUP2 LT PUSH2 0xCC6 JUMPI PUSH4 0x4E487B71 PUSH1 0xE0 SHL PUSH1 0x0 MSTORE PUSH1 0x32 PUSH1 0x4 MSTORE PUSH1 0x24 PUSH1 0x0 REVERT JUMPDEST SWAP1 POP PUSH1 0x20 MUL ADD CALLDATALOAD PUSH1 0x0 EQ JUMPDEST DUP1 PUSH2 0xD68 JUMPI POP DUP6 DUP6 PUSH1 0x2 DUP2 DUP2 LT PUSH2 0xCF8 JUMPI PUSH4 0x4E487B71 PUSH1 0xE0 SHL PUSH1 0x0 MSTORE PUSH1 0x32 PUSH1 0x4 MSTORE PUSH1 0x24 PUSH1 0x0 REVERT JUMPDEST SWAP1 POP PUSH1 0x20 MUL ADD CALLDATALOAD PUSH1 0x0 EQ DUP1 ISZERO PUSH2 0xD35 JUMPI POP DUP6 DUP6 PUSH1 0x5 DUP2 DUP2 LT PUSH2 0xD2A JUMPI PUSH4 0x4E487B71 PUSH1 0xE0 SHL PUSH1 0x0 MSTORE PUSH1 0x32 PUSH1 0x4 MSTORE PUSH1 0x24 PUSH1 0x0 REVERT JUMPDEST SWAP1 POP PUSH1 0x20 MUL ADD CALLDATALOAD PUSH1 0x0 EQ JUMPDEST DUP1 ISZERO PUSH2 0xD68 JUMPI POP DUP6 DUP6 PUSH1 0x8 DUP2 DUP2 LT PUSH2 0xD5D JUMPI PUSH4 0x4E487B71 PUSH1 0xE0 SHL PUSH1 0x0 MSTORE PUSH1 0x32 PUSH1 0x4 MSTORE PUSH1 0x24 PUSH1 0x0 REVERT JUMPDEST SWAP1 POP PUSH1 0x20 MUL ADD CALLDATALOAD PUSH1 0x0 EQ JUMPDEST ISZERO PUSH2 0xE2A JUMPI PUSH1 0x0 DUP1 SLOAD PUSH1 0x1 DUP1 SLOAD PUSH1 0x1 PUSH1 0x1 PUSH1 0xA0 SHL SUB NOT AND PUSH1 0x1 PUSH1 0x1 PUSH1 0xA0 SHL SUB SWAP1 SWAP3 AND SWAP2 DUP3 OR SWAP1 SSTORE PUSH1 0x40 MLOAD SELFBALANCE SWAP3 SWAP2 SWAP1 DUP4 SWAP1 JUMPDEST PUSH1 0x0 PUSH1 0x40 MLOAD DUP1 DUP4 SUB DUP2 DUP6 DUP8 GAS CALL SWAP3 POP POP POP RETURNDATASIZE DUP1 PUSH1 0x0 DUP2 EQ PUSH2 0xDD6 JUMPI PUSH1 0x40 MLOAD SWAP2 POP PUSH1 0x1F NOT PUSH1 0x3F RETURNDATASIZE ADD AND DUP3 ADD PUSH1 0x40 MSTORE RETURNDATASIZE DUP3 MSTORE RETURNDATASIZE PUSH1 0x0 PUSH1 0x20 DUP5 ADD RETURNDATACOPY PUSH2 0xDDB JUMP JUMPDEST PUSH1 0x60 SWAP2 POP JUMPDEST POP POP SWAP1 POP DUP1 PUSH2 0xE23 JUMPI PUSH1 0x40 MLOAD PUSH3 0x461BCD PUSH1 0xE5 SHL DUP2 MSTORE PUSH1 0x20 PUSH1 0x4 DUP3 ADD MSTORE PUSH1 0x14 PUSH1 0x24 DUP3 ADD MSTORE PUSH20 0x2330B4B632B2103A379039B2B7321022BA3432B9 PUSH1 0x61 SHL PUSH1 0x44 DUP3 ADD MSTORE PUSH1 0x64 ADD PUSH2 0x3F7 JUMP JUMPDEST POP POP PUSH2 0x1319 JUMP JUMPDEST DUP6 DUP6 PUSH1 0x0 DUP2 DUP2 LT PUSH2 0xE4B JUMPI PUSH4 0x4E487B71 PUSH1 0xE0 SHL PUSH1 0x0 MSTORE PUSH1 0x32 PUSH1 0x4 MSTORE PUSH1 0x24 PUSH1 0x0 REVERT JUMPDEST SWAP1 POP PUSH1 0x20 MUL ADD CALLDATALOAD PUSH1 0x2 EQ DUP1 ISZERO PUSH2 0xE88 JUMPI POP DUP6 DUP6 PUSH1 0x1 DUP2 DUP2 LT PUSH2 0xE7D JUMPI PUSH4 0x4E487B71 PUSH1 0xE0 SHL PUSH1 0x0 MSTORE PUSH1 0x32 PUSH1 0x4 MSTORE PUSH1 0x24 PUSH1 0x0 REVERT JUMPDEST SWAP1 POP PUSH1 0x20 MUL ADD CALLDATALOAD PUSH1 0x2 EQ JUMPDEST DUP1 ISZERO PUSH2 0xEBB JUMPI POP DUP6 DUP6 PUSH1 0x2 DUP2 DUP2 LT PUSH2 0xEB0 JUMPI PUSH4 0x4E487B71 PUSH1 0xE0 SHL PUSH1 0x0 MSTORE PUSH1 0x32 PUSH1 0x4 MSTORE PUSH1 0x24 PUSH1 0x0 REVERT JUMPDEST SWAP1 POP PUSH1 0x20 MUL ADD CALLDATALOAD PUSH1 0x2 EQ JUMPDEST DUP1 PUSH2 0xF52 JUMPI POP DUP6 DUP6 PUSH1 0x3 DUP2 DUP2 LT PUSH2 0xEE2 JUMPI PUSH4 0x4E487B71 PUSH1 0xE0 SHL PUSH1 0x0 MSTORE PUSH1 0x32 PUSH1 0x4 MSTORE PUSH1 0x24 PUSH1 0x0 REVERT JUMPDEST SWAP1 POP PUSH1 0x20 MUL ADD CALLDATALOAD PUSH1 0x2 EQ DUP1 ISZERO PUSH2 0xF1F JUMPI POP DUP6 DUP6 PUSH1 0x4 DUP2 DUP2 LT PUSH2 0xF14 JUMPI PUSH4 0x4E487B71 PUSH1 0xE0 SHL PUSH1 0x0 MSTORE PUSH1 0x32 PUSH1 0x4 MSTORE PUSH1 0x24 PUSH1 0x0 REVERT JUMPDEST SWAP1 POP PUSH1 0x20 MUL ADD CALLDATALOAD PUSH1 0x2 EQ JUMPDEST DUP1 ISZERO PUSH2 0xF52 JUMPI POP DUP6 DUP6 PUSH1 0x5 DUP2 DUP2 LT PUSH2 0xF47 JUMPI PUSH4 0x4E487B71 PUSH1 0xE0 SHL PUSH1 0x0 MSTORE PUSH1 0x32 PUSH1 0x4 MSTORE PUSH1 0x24 PUSH1 0x0 REVERT JUMPDEST SWAP1 POP PUSH1 0x20 MUL ADD CALLDATALOAD PUSH1 0x2 EQ JUMPDEST DUP1 PUSH2 0xFE9 JUMPI POP DUP6 DUP6 PUSH1 0x6 DUP2 DUP2 LT PUSH2 0xF79 JUMPI PUSH4 0x4E487B71 PUSH1 0xE0 SHL PUSH1 0x0 MSTORE PUSH1 0x32 PUSH1 0x4 MSTORE PUSH1 0x24 PUSH1 0x0 REVERT JUMPDEST SWAP1 POP PUSH1 0x20 MUL ADD CALLDATALOAD PUSH1 0x2 EQ DUP1 ISZERO PUSH2 0xFB6 JUMPI POP DUP6 DUP6 PUSH1 0x7 DUP2 DUP2 LT PUSH2 0xFAB JUMPI PUSH4 0x4E487B71 PUSH1 0xE0 SHL PUSH1 0x0 MSTORE PUSH1 0x32 PUSH1 0x4 MSTORE PUSH1 0x24 PUSH1 0x0 REVERT JUMPDEST SWAP1 POP PUSH1 0x20 MUL ADD CALLDATALOAD PUSH1 0x2 EQ JUMPDEST DUP1 ISZERO PUSH2 0xFE9 JUMPI POP DUP6 DUP6 PUSH1 0x8 DUP2 DUP2 LT PUSH2 0xFDE JUMPI PUSH4 0x4E487B71 PUSH1 0xE0 SHL PUSH1 0x0 MSTORE PUSH1 0x32 PUSH1 0x4 MSTORE PUSH1 0x24 PUSH1 0x0 REVERT JUMPDEST SWAP1 POP PUSH1 0x20 MUL ADD CALLDATALOAD PUSH1 0x2 EQ JUMPDEST DUP1 PUSH2 0x1080 JUMPI POP DUP6 DUP6 PUSH1 0x0 DUP2 DUP2 LT PUSH2 0x1010 JUMPI PUSH4 0x4E487B71 PUSH1 0xE0 SHL PUSH1 0x0 MSTORE PUSH1 0x32 PUSH1 0x4 MSTORE PUSH1 0x24 PUSH1 0x0 REVERT JUMPDEST SWAP1 POP PUSH1 0x20 MUL ADD CALLDATALOAD PUSH1 0x2 EQ DUP1 ISZERO PUSH2 0x104D JUMPI POP DUP6 DUP6 PUSH1 0x4 DUP2 DUP2 LT PUSH2 0x1042 JUMPI PUSH4 0x4E487B71 PUSH1 0xE0 SHL PUSH1 0x0 MSTORE PUSH1 0x32 PUSH1 0x4 MSTORE PUSH1 0x24 PUSH1 0x0 REVERT JUMPDEST SWAP1 POP PUSH1 0x20 MUL ADD CALLDATALOAD PUSH1 0x2 EQ JUMPDEST DUP1 ISZERO PUSH2 0x1080 JUMPI POP DUP6 DUP6 PUSH1 0x8 DUP2 DUP2 LT PUSH2 0x1075 JUMPI PUSH4 0x4E487B71 PUSH1 0xE0 SHL PUSH1 0x0 MSTORE PUSH1 0x32 PUSH1 0x4 MSTORE PUSH1 0x24 PUSH1 0x0 REVERT JUMPDEST SWAP1 POP PUSH1 0x20 MUL ADD CALLDATALOAD PUSH1 0x2 EQ JUMPDEST DUP1 PUSH2 0x1117 JUMPI POP DUP6 DUP6 PUSH1 0x6 DUP2 DUP2 LT PUSH2 0x10A7 JUMPI PUSH4 0x4E487B71 PUSH1 0xE0 SHL PUSH1 0x0 MSTORE PUSH1 0x32 PUSH1 0x4 MSTORE PUSH1 0x24 PUSH1 0x0 REVERT JUMPDEST SWAP1 POP PUSH1 0x20 MUL ADD CALLDATALOAD PUSH1 0x2 EQ DUP1 ISZERO PUSH2 0x10E4 JUMPI POP DUP6 DUP6 PUSH1 0x4 DUP2 DUP2 LT PUSH2 0x10D9 JUMPI PUSH4 0x4E487B71 PUSH1 0xE0 SHL PUSH1 0x0 MSTORE PUSH1 0x32 PUSH1 0x4 MSTORE PUSH1 0x24 PUSH1 0x0 REVERT JUMPDEST SWAP1 POP PUSH1 0x20 MUL ADD CALLDATALOAD PUSH1 0x2 EQ JUMPDEST DUP1 ISZERO PUSH2 0x1117 JUMPI POP DUP6 DUP6 PUSH1 0x2 DUP2 DUP2 LT PUSH2 0x110C JUMPI PUSH4 0x4E487B71 PUSH1 0xE0 SHL PUSH1 0x0 MSTORE PUSH1 0x32 PUSH1 0x4 MSTORE PUSH1 0x24 PUSH1 0x0 REVERT JUMPDEST SWAP1 POP PUSH1 0x20 MUL ADD CALLDATALOAD PUSH1 0x2 EQ JUMPDEST DUP1 PUSH2 0x11AE JUMPI POP DUP6 DUP6 PUSH1 0x0 DUP2 DUP2 LT PUSH2 0x113E JUMPI PUSH4 0x4E487B71 PUSH1 0xE0 SHL PUSH1 0x0 MSTORE PUSH1 0x32 PUSH1 0x4 MSTORE PUSH1 0x24 PUSH1 0x0 REVERT JUMPDEST SWAP1 POP PUSH1 0x20 MUL ADD CALLDATALOAD PUSH1 0x2 EQ DUP1 ISZERO PUSH2 0x117B JUMPI POP DUP6 DUP6 PUSH1 0x3 DUP2 DUP2 LT PUSH2 0x1170 JUMPI PUSH4 0x4E487B71 PUSH1 0xE0 SHL PUSH1 0x0 MSTORE PUSH1 0x32 PUSH1 0x4 MSTORE PUSH1 0x24 PUSH1 0x0 REVERT JUMPDEST SWAP1 POP PUSH1 0x20 MUL ADD CALLDATALOAD PUSH1 0x2 EQ JUMPDEST DUP1 ISZERO PUSH2 0x11AE JUMPI POP DUP6 DUP6 PUSH1 0x6 DUP2 DUP2 LT PUSH2 0x11A3 JUMPI PUSH4 0x4E487B71 PUSH1 0xE0 SHL PUSH1 0x0 MSTORE PUSH1 0x32 PUSH1 0x4 MSTORE PUSH1 0x24 PUSH1 0x0 REVERT JUMPDEST SWAP1 POP PUSH1 0x20 MUL ADD CALLDATALOAD PUSH1 0x2 EQ JUMPDEST DUP1 PUSH2 0x1245 JUMPI POP DUP6 DUP6 PUSH1 0x1 DUP2 DUP2 LT PUSH2 0x11D5 JUMPI PUSH4 0x4E487B71 PUSH1 0xE0 SHL PUSH1 0x0 MSTORE PUSH1 0x32 PUSH1 0x4 MSTORE PUSH1 0x24 PUSH1 0x0 REVERT JUMPDEST SWAP1 POP PUSH1 0x20 MUL ADD CALLDATALOAD PUSH1 0x2 EQ DUP1 ISZERO PUSH2 0x1212 JUMPI POP DUP6 DUP6 PUSH1 0x4 DUP2 DUP2 LT PUSH2 0x1207 JUMPI PUSH4 0x4E487B71 PUSH1 0xE0 SHL PUSH1 0x0 MSTORE PUSH1 0x32 PUSH1 0x4 MSTORE PUSH1 0x24 PUSH1 0x0 REVERT JUMPDEST SWAP1 POP PUSH1 0x20 MUL ADD CALLDATALOAD PUSH1 0x2 EQ JUMPDEST DUP1 ISZERO PUSH2 0x1245 JUMPI POP DUP6 DUP6 PUSH1 0x7 DUP2 DUP2 LT PUSH2 0x123A JUMPI PUSH4 0x4E487B71 PUSH1 0xE0 SHL PUSH1 0x0 MSTORE PUSH1 0x32 PUSH1 0x4 MSTORE PUSH1 0x24 PUSH1 0x0 REVERT JUMPDEST SWAP1 POP PUSH1 0x20 MUL ADD CALLDATALOAD PUSH1 0x2 EQ JUMPDEST DUP1 PUSH2 0x12DC JUMPI POP DUP6 DUP6 PUSH1 0x2 DUP2 DUP2 LT PUSH2 0x126C JUMPI PUSH4 0x4E487B71 PUSH1 0xE0 SHL PUSH1 0x0 MSTORE PUSH1 0x32 PUSH1 0x4 MSTORE PUSH1 0x24 PUSH1 0x0 REVERT JUMPDEST SWAP1 POP PUSH1 0x20 MUL ADD CALLDATALOAD PUSH1 0x2 EQ DUP1 ISZERO PUSH2 0x12A9 JUMPI POP DUP6 DUP6 PUSH1 0x5 DUP2 DUP2 LT PUSH2 0x129E JUMPI PUSH4 0x4E487B71 PUSH1 0xE0 SHL PUSH1 0x0 MSTORE PUSH1 0x32 PUSH1 0x4 MSTORE PUSH1 0x24 PUSH1 0x0 REVERT JUMPDEST SWAP1 POP PUSH1 0x20 MUL ADD CALLDATALOAD PUSH1 0x2 EQ JUMPDEST DUP1 ISZERO PUSH2 0x12DC JUMPI POP DUP6 DUP6 PUSH1 0x8 DUP2 DUP2 LT PUSH2 0x12D1 JUMPI PUSH4 0x4E487B71 PUSH1 0xE0 SHL PUSH1 0x0 MSTORE PUSH1 0x32 PUSH1 0x4 MSTORE PUSH1 0x24 PUSH1 0x0 REVERT JUMPDEST SWAP1 POP PUSH1 0x20 MUL ADD CALLDATALOAD PUSH1 0x2 EQ JUMPDEST ISZERO PUSH2 0x1311 JUMPI PUSH1 0x2 SLOAD PUSH1 0x1 DUP1 SLOAD PUSH1 0x1 PUSH1 0x1 PUSH1 0xA0 SHL SUB NOT AND PUSH1 0x1 PUSH1 0x1 PUSH1 0xA0 SHL SUB SWAP1 SWAP3 AND SWAP2 DUP3 OR SWAP1 SSTORE PUSH1 0x40 MLOAD SELFBALANCE SWAP2 PUSH1 0x0 SWAP2 DUP4 SWAP1 PUSH2 0xD99 JUMP JUMPDEST POP PUSH1 0x0 PUSH2 0x131D JUMP JUMPDEST POP PUSH1 0x1 JUMPDEST SWAP6 SWAP5 POP POP POP POP POP JUMP JUMPDEST PUSH1 0x0 DUP1 DUP4 PUSH1 0x1F DUP5 ADD SLT PUSH2 0x1337 JUMPI DUP2 DUP3 REVERT JUMPDEST POP DUP2 CALLDATALOAD PUSH8 0xFFFFFFFFFFFFFFFF DUP2 GT ISZERO PUSH2 0x134E JUMPI DUP2 DUP3 REVERT JUMPDEST PUSH1 0x20 DUP4 ADD SWAP2 POP DUP4 PUSH1 0x20 DUP3 PUSH1 0x5 SHL DUP6 ADD ADD GT ISZERO PUSH2 0x1369 JUMPI PUSH1 0x0 DUP1 REVERT JUMPDEST SWAP3 POP SWAP3 SWAP1 POP JUMP JUMPDEST PUSH1 0x0 DUP3 PUSH1 0x1F DUP4 ADD SLT PUSH2 0x1380 JUMPI DUP1 DUP2 REVERT JUMPDEST DUP2 CALLDATALOAD PUSH8 0xFFFFFFFFFFFFFFFF DUP2 GT ISZERO PUSH2 0x139A JUMPI PUSH2 0x139A PUSH2 0x174B JUMP JUMPDEST PUSH2 0x13AD PUSH1 0x1F DUP3 ADD PUSH1 0x1F NOT AND PUSH1 0x20 ADD PUSH2 0x16D1 JUMP JUMPDEST DUP2 DUP2 MSTORE DUP5 PUSH1 0x20 DUP4 DUP7 ADD ADD GT ISZERO PUSH2 0x13C1 JUMPI DUP3 DUP4 REVERT JUMPDEST DUP2 PUSH1 0x20 DUP6 ADD PUSH1 0x20 DUP4 ADD CALLDATACOPY SWAP1 DUP2 ADD PUSH1 0x20 ADD SWAP2 SWAP1 SWAP2 MSTORE SWAP3 SWAP2 POP POP JUMP JUMPDEST PUSH1 0x0 DUP1 PUSH1 0x20 DUP4 DUP6 SUB SLT ISZERO PUSH2 0x13ED JUMPI DUP2 DUP3 REVERT JUMPDEST DUP3 CALLDATALOAD PUSH8 0xFFFFFFFFFFFFFFFF DUP2 GT ISZERO PUSH2 0x1403 JUMPI DUP3 DUP4 REVERT JUMPDEST PUSH2 0x140F DUP6 DUP3 DUP7 ADD PUSH2 0x1326 JUMP JUMPDEST SWAP1 SWAP7 SWAP1 SWAP6 POP SWAP4 POP POP POP POP JUMP JUMPDEST PUSH1 0x0 DUP1 PUSH1 0x0 DUP1 PUSH1 0x0 PUSH1 0x80 DUP7 DUP9 SUB SLT ISZERO PUSH2 0x1432 JUMPI DUP1 DUP2 REVERT JUMPDEST DUP6 CALLDATALOAD PUSH8 0xFFFFFFFFFFFFFFFF DUP1 DUP3 GT ISZERO PUSH2 0x1449 JUMPI DUP3 DUP4 REVERT JUMPDEST PUSH2 0x1455 DUP10 DUP4 DUP11 ADD PUSH2 0x1326 JUMP JUMPDEST SWAP1 SWAP8 POP SWAP6 POP PUSH1 0x20 DUP9 ADD CALLDATALOAD SWAP5 POP PUSH1 0x40 DUP9 ADD CALLDATALOAD SWAP2 POP DUP1 DUP3 GT ISZERO PUSH2 0x1474 JUMPI DUP3 DUP4 REVERT JUMPDEST PUSH2 0x1480 DUP10 DUP4 DUP11 ADD PUSH2 0x1370 JUMP JUMPDEST SWAP4 POP PUSH1 0x60 DUP9 ADD CALLDATALOAD SWAP2 POP DUP1 DUP3 GT ISZERO PUSH2 0x1495 JUMPI DUP3 DUP4 REVERT JUMPDEST POP PUSH2 0x14A2 DUP9 DUP3 DUP10 ADD PUSH2 0x1370 JUMP JUMPDEST SWAP2 POP POP SWAP3 SWAP6 POP SWAP3 SWAP6 SWAP1 SWAP4 POP JUMP JUMPDEST PUSH1 0x0 DUP1 PUSH1 0x0 PUSH1 0x60 DUP5 DUP7 SUB SLT ISZERO PUSH2 0x14C3 JUMPI DUP3 DUP4 REVERT JUMPDEST DUP4 CALLDATALOAD SWAP3 POP PUSH1 0x20 DUP1 DUP6 ADD CALLDATALOAD SWAP3 POP PUSH1 0x40 DUP6 ADD CALLDATALOAD PUSH8 0xFFFFFFFFFFFFFFFF DUP1 DUP3 GT ISZERO PUSH2 0x14E9 JUMPI DUP4 DUP5 REVERT JUMPDEST DUP2 DUP8 ADD SWAP2 POP DUP8 PUSH1 0x1F DUP4 ADD SLT PUSH2 0x14FC JUMPI DUP4 DUP5 REVERT JUMPDEST DUP2 CALLDATALOAD DUP2 DUP2 GT ISZERO PUSH2 0x150E JUMPI PUSH2 0x150E PUSH2 0x174B JUMP JUMPDEST DUP1 PUSH1 0x5 SHL SWAP2 POP PUSH2 0x151F DUP5 DUP4 ADD PUSH2 0x16D1 JUMP JUMPDEST DUP2 DUP2 MSTORE DUP5 DUP2 ADD SWAP1 DUP5 DUP7 ADD DUP5 DUP7 ADD DUP8 ADD DUP13 LT ISZERO PUSH2 0x1539 JUMPI DUP8 DUP9 REVERT JUMPDEST DUP8 SWAP6 POP JUMPDEST DUP4 DUP7 LT ISZERO PUSH2 0x155B JUMPI DUP1 CALLDATALOAD DUP4 MSTORE PUSH1 0x1 SWAP6 SWAP1 SWAP6 ADD SWAP5 SWAP2 DUP7 ADD SWAP2 DUP7 ADD PUSH2 0x153D JUMP JUMPDEST POP DUP1 SWAP7 POP POP POP POP POP POP POP SWAP3 POP SWAP3 POP SWAP3 JUMP JUMPDEST PUSH1 0x0 DUP1 PUSH1 0x0 DUP1 PUSH1 0x80 DUP6 DUP8 SUB SLT ISZERO PUSH2 0x1581 JUMPI DUP4 DUP5 REVERT JUMPDEST DUP5 CALLDATALOAD SWAP4 POP PUSH1 0x20 DUP6 ADD CALLDATALOAD SWAP3 POP PUSH1 0x40 DUP6 ADD CALLDATALOAD PUSH8 0xFFFFFFFFFFFFFFFF DUP1 DUP3 GT ISZERO PUSH2 0x15A6 JUMPI DUP4 DUP5 REVERT JUMPDEST PUSH2 0x15B2 DUP9 DUP4 DUP10 ADD PUSH2 0x1370 JUMP JUMPDEST SWAP4 POP PUSH1 0x60 DUP8 ADD CALLDATALOAD SWAP2 POP DUP1 DUP3 GT ISZERO PUSH2 0x15C7 JUMPI DUP3 DUP4 REVERT JUMPDEST POP PUSH2 0x15D4 DUP8 DUP3 DUP9 ADD PUSH2 0x1370 JUMP JUMPDEST SWAP2 POP POP SWAP3 SWAP6 SWAP2 SWAP5 POP SWAP3 POP JUMP JUMPDEST PUSH1 0x0 DUP1 PUSH1 0x40 DUP4 DUP6 SUB SLT ISZERO PUSH2 0x15F2 JUMPI DUP2 DUP3 REVERT JUMPDEST DUP3 CALLDATALOAD SWAP2 POP PUSH1 0x20 DUP4 ADD CALLDATALOAD PUSH8 0xFFFFFFFFFFFFFFFF DUP2 GT ISZERO PUSH2 0x160F JUMPI DUP2 DUP3 REVERT JUMPDEST PUSH2 0x161B DUP6 DUP3 DUP7 ADD PUSH2 0x1370 JUMP JUMPDEST SWAP2 POP POP SWAP3 POP SWAP3 SWAP1 POP JUMP JUMPDEST PUSH1 0x0 PUSH1 0x20 DUP3 DUP5 SUB SLT ISZERO PUSH2 0x1636 JUMPI DUP1 DUP2 REVERT JUMPDEST DUP2 CALLDATALOAD PUSH8 0xFFFFFFFFFFFFFFFF DUP2 GT ISZERO PUSH2 0x164C JUMPI DUP2 DUP3 REVERT JUMPDEST PUSH2 0x1658 DUP5 DUP3 DUP6 ADD PUSH2 0x1370 JUMP JUMPDEST SWAP5 SWAP4 POP POP POP POP JUMP JUMPDEST PUSH1 0x20 DUP1 DUP3 MSTORE DUP2 ADD DUP3 SWAP1 MSTORE PUSH1 0x0 PUSH1 0x1 PUSH1 0x1 PUSH1 0xFB SHL SUB DUP4 GT ISZERO PUSH2 0x167F JUMPI DUP1 DUP2 REVERT JUMPDEST DUP3 PUSH1 0x5 SHL DUP1 DUP6 PUSH1 0x40 DUP6 ADD CALLDATACOPY SWAP2 SWAP1 SWAP2 ADD PUSH1 0x40 ADD SWAP1 DUP2 MSTORE SWAP3 SWAP2 POP POP JUMP JUMPDEST PUSH1 0x20 DUP1 DUP3 MSTORE PUSH1 0x1A SWAP1 DUP3 ADD MSTORE PUSH32 0x454F415665726966793A205369676E6564206D69736D61746368000000000000 PUSH1 0x40 DUP3 ADD MSTORE PUSH1 0x60 ADD SWAP1 JUMP JUMPDEST PUSH1 0x40 MLOAD PUSH1 0x1F DUP3 ADD PUSH1 0x1F NOT AND DUP2 ADD PUSH8 0xFFFFFFFFFFFFFFFF DUP2 GT DUP3 DUP3 LT OR ISZERO PUSH2 0x16FA JUMPI PUSH2 0x16FA PUSH2 0x174B JUMP JUMPDEST PUSH1 0x40 MSTORE SWAP2 SWAP1 POP JUMP JUMPDEST PUSH1 0x0 DUP3 NOT DUP3 GT ISZERO PUSH2 0x1715 JUMPI PUSH2 0x1715 PUSH2 0x1735 JUMP JUMPDEST POP ADD SWAP1 JUMP JUMPDEST PUSH1 0x0 PUSH1 0x0 NOT DUP3 EQ ISZERO PUSH2 0x172E JUMPI PUSH2 0x172E PUSH2 0x1735 JUMP JUMPDEST POP PUSH1 0x1 ADD SWAP1 JUMP JUMPDEST PUSH4 0x4E487B71 PUSH1 0xE0 SHL PUSH1 0x0 MSTORE PUSH1 0x11 PUSH1 0x4 MSTORE PUSH1 0x24 PUSH1 0x0 REVERT JUMPDEST PUSH4 0x4E487B71 PUSH1 0xE0 SHL PUSH1 0x0 MSTORE PUSH1 0x41 PUSH1 0x4 MSTORE PUSH1 0x24 PUSH1 0x0 REVERT INVALID LOG2 PUSH5 0x6970667358 0x22 SLT KECCAK256 JUMP SWAP11 0x26 DUP4 JUMPDEST DUP13 0xC5 0x5D SWAP14 0xA9 SWAP15 POP 0xE0 0xE9 0xCA 0xB7 EQ SWAP13 DELEGATECALL BLOCKHASH 0xF6 0xD ADDRESS 0xB8 SMOD SWAP7 PUSH29 0x8CE9341BD764736F6C6343000804003300000000000000000000000000 "
        },
        "methodIdentifiers": {
          "TIMEOUT()": "f56f48f2",
          "_verifyMerkleProof(bytes32,bytes32,bytes32[])": "ee51c20f",
          "bet()": "11610c25",
          "cancelTimeout()": "3744734d",
          "claimTimeout()": "0e1da6c3",
          "getMessageHash(uint256[])": "93b6db5a",
          "getP1()": "4b8934e8",
          "getP2()": "ded09978",
          "join()": "b688a363",
          "owner()": "8da5cb5b",
          "recoverSigner(bytes32,bytes)": "97aba7f9",
          "returnWinner()": "d2501b9c",
          "splitSignature(bytes)": "a7bb5803",
          "timeout()": "70dea79a",
          "timeoutChallenge(bytes32,bytes32,bytes,bytes)": "f78f1d44",
          "verify(uint256[],bytes32,bytes,bytes)": "ff893e0d",
          "winner()": "dfbf53ae"
        }
      }
    }
  }
}