{
  "_format": "hh-sol-artifact-1",
  "contractName": "TreeChannel",
  "sourceName": "contracts/TreeChannel.sol",
  "abi": [
    {
      "inputs": [
        {
          "internalType": "bytes32",
          "name": "root",
          "type": "bytes32"
        }
      ],
      "stateMutability": "payable",
      "type": "constructor"
    },
    {
      "inputs": [
        {
          "internalType": "bytes32",
          "name": "leaf",
          "type": "bytes32"
        },
        {
          "internalType": "bytes32[]",
          "name": "proof",
          "type": "bytes32[]"
        }
      ],
      "name": "_verifyMerkleProof",
      "outputs": [
        {
          "internalType": "bool",
          "name": "",
          "type": "bool"
        }
      ],
      "stateMutability": "view",
      "type": "function"
    },
    {
      "inputs": [],
      "name": "getRoot",
      "outputs": [
        {
          "internalType": "bytes32",
          "name": "",
          "type": "bytes32"
        }
      ],
      "stateMutability": "view",
      "type": "function"
    },
    {
      "inputs": [],
      "name": "getrowA",
      "outputs": [
        {
          "internalType": "uint256[]",
          "name": "",
          "type": "uint256[]"
        }
      ],
      "stateMutability": "view",
      "type": "function"
    },
    {
      "inputs": [],
      "name": "getrowB",
      "outputs": [
        {
          "internalType": "uint256[]",
          "name": "",
          "type": "uint256[]"
        }
      ],
      "stateMutability": "view",
      "type": "function"
    },
    {
      "inputs": [],
      "name": "join",
      "outputs": [],
      "stateMutability": "payable",
      "type": "function"
    },
    {
      "inputs": [],
      "name": "owner",
      "outputs": [
        {
          "internalType": "address",
          "name": "",
          "type": "address"
        }
      ],
      "stateMutability": "view",
      "type": "function"
    },
    {
      "inputs": [],
      "name": "returnWinner",
      "outputs": [
        {
          "internalType": "address",
          "name": "",
          "type": "address"
        }
      ],
      "stateMutability": "view",
      "type": "function"
    },
    {
      "inputs": [],
      "name": "rootTree",
      "outputs": [
        {
          "internalType": "bytes32",
          "name": "",
          "type": "bytes32"
        }
      ],
      "stateMutability": "view",
      "type": "function"
    },
    {
      "inputs": [
        {
          "internalType": "uint256",
          "name": "",
          "type": "uint256"
        }
      ],
      "name": "rowA",
      "outputs": [
        {
          "internalType": "uint256",
          "name": "",
          "type": "uint256"
        }
      ],
      "stateMutability": "view",
      "type": "function"
    },
    {
      "inputs": [
        {
          "internalType": "uint256",
          "name": "",
          "type": "uint256"
        }
      ],
      "name": "rowB",
      "outputs": [
        {
          "internalType": "uint256",
          "name": "",
          "type": "uint256"
        }
      ],
      "stateMutability": "view",
      "type": "function"
    },
    {
      "inputs": [
        {
          "internalType": "string",
          "name": "numString",
          "type": "string"
        }
      ],
      "name": "st2num",
      "outputs": [
        {
          "internalType": "uint256",
          "name": "",
          "type": "uint256"
        }
      ],
      "stateMutability": "pure",
      "type": "function"
    },
    {
      "inputs": [],
      "name": "sumA",
      "outputs": [
        {
          "internalType": "uint256",
          "name": "",
          "type": "uint256"
        }
      ],
      "stateMutability": "view",
      "type": "function"
    },
    {
      "inputs": [],
      "name": "sumB",
      "outputs": [
        {
          "internalType": "uint256",
          "name": "",
          "type": "uint256"
        }
      ],
      "stateMutability": "view",
      "type": "function"
    },
    {
      "inputs": [
        {
          "internalType": "uint256[]",
          "name": "_num",
          "type": "uint256[]"
        },
        {
          "internalType": "string[]",
          "name": "_tree",
          "type": "string[]"
        }
      ],
      "name": "verify",
      "outputs": [
        {
          "internalType": "bool",
          "name": "",
          "type": "bool"
        }
      ],
      "stateMutability": "nonpayable",
      "type": "function"
    },
    {
      "inputs": [],
      "name": "winner",
      "outputs": [
        {
          "internalType": "address",
          "name": "",
          "type": "address"
        }
      ],
      "stateMutability": "view",
      "type": "function"
    }
  ],
  "bytecode": "0x608060405260006006556000600755604051610e49380380610e4983398101604081905261002c91610046565b600355600080546001600160a01b0319163317905561005e565b600060208284031215610057578081fd5b5051919050565b610ddc8061006d6000396000f3fe6080604052600436106100e85760003560e01c80638be39f931161008a578063c8d35fab11610059578063c8d35fab14610249578063d2501b9c1461026b578063dfbf53ae14610289578063e1734c7a146102a957600080fd5b80638be39f93146101c75780638da5cb5b146101e7578063b688a3631461021f578063c2013f721461022957600080fd5b8063609e7a6f116100c6578063609e7a6f1461014b5780636c69ba4d1461016157806379cd9055146101915780637f68f5ad146101b157600080fd5b80630efb4150146100ed5780634ffbf0f3146101165780635ca1e16514610136575b600080fd5b3480156100f957600080fd5b5061010360075481565b6040519081526020015b60405180910390f35b34801561012257600080fd5b50610103610131366004610b28565b6102be565b34801561014257600080fd5b50600354610103565b34801561015757600080fd5b5061010360065481565b34801561016d57600080fd5b5061018161017c3660046109e7565b6102df565b604051901515815260200161010d565b34801561019d57600080fd5b506101036101ac366004610a9b565b61039f565b3480156101bd57600080fd5b5061010360035481565b3480156101d357600080fd5b506101036101e2366004610b28565b610451565b3480156101f357600080fd5b50600054610207906001600160a01b031681565b6040516001600160a01b03909116815260200161010d565b610227610461565b005b34801561023557600080fd5b5061018161024436600461097e565b61048b565b34801561025557600080fd5b5061025e610886565b60405161010d9190610b40565b34801561027757600080fd5b506001546001600160a01b0316610207565b34801561029557600080fd5b50600154610207906001600160a01b031681565b3480156102b557600080fd5b5061025e6108de565b600481815481106102ce57600080fd5b600091825260209091200154905081565b600082815b835181101561039157600084828151811061030f57634e487b7160e01b600052603260045260246000fd5b6020026020010151905080831161035157604080516020810185905290810182905260600160405160208183030381529060405280519060200120925061037e565b60408051602081018390529081018490526060016040516020818303038152906040528051906020012092505b508061038981610d3f565b9150506102e4565b506003541490505b92915050565b60008082815b81518110156104485760008183516103bd9190610d28565b905060008383815181106103e157634e487b7160e01b600052603260045260246000fd5b01602001516001600160f81b03198116915060f81c6000610403603083610d28565b9050610410600185610d28565b61041b90600a610c55565b6104259082610d09565b61042f9088610bfa565b965050505050808061044090610d3f565b9150506103a5565b50909392505050565b600581815481106102ce57600080fd5b6002546001600160a01b03161561047757600080fd5b600280546001600160a01b03191633179055565b6000805b8481101561063b578585828181106104b757634e487b7160e01b600052603260045260246000fd5b90506020020135600a141561055a576004600a6105398686858181106104ed57634e487b7160e01b600052603260045260246000fd5b90506020028101906104ff9190610b84565b8080601f01602080910402602001604051908101604052809392919081815260200183838082843760009201919091525061039f92505050565b6105439190610d5a565b815460018101835560009283526020909220909101555b85858281811061057a57634e487b7160e01b600052603260045260246000fd5b90506020020135600b14156105d1576005600a6105b08686858181106104ed57634e487b7160e01b600052603260045260246000fd5b6105ba9190610d5a565b815460018101835560009283526020909220909101555b8585828181106105f157634e487b7160e01b600052603260045260246000fd5b905060200201356000141561060557610629565b85858281811061062557634e487b7160e01b600052603260045260246000fd5b5050505b8061063381610d3f565b91505061048f565b5060005b600454811015610697576004818154811061066a57634e487b7160e01b600052603260045260246000fd5b90600052602060002001546006546106829190610bfa565b6006558061068f81610d3f565b91505061063f565b5060005b6005548110156106f357600581815481106106c657634e487b7160e01b600052603260045260246000fd5b90600052602060002001546007546106de9190610bfa565b600755806106eb81610d3f565b91505061069b565b5060075460065411156107bc5760008054600180546001600160a01b0319166001600160a01b0390921691821790556040514792919083908381818185875af1925050503d8060008114610763576040519150601f19603f3d011682016040523d82523d6000602084013e610768565b606091505b50509050806107b55760405162461bcd60e51b81526020600482015260146024820152732330b4b632b2103a379039b2b7321022ba3432b960611b60448201526064015b60405180910390fd5b505061087b565b600654600754111561087b57600254600180546001600160a01b0319166001600160a01b039092169182179055604051479160009183908381818185875af1925050503d806000811461082b576040519150601f19603f3d011682016040523d82523d6000602084013e610830565b606091505b50509050806108785760405162461bcd60e51b81526020600482015260146024820152732330b4b632b2103a379039b2b7321022ba3432b960611b60448201526064016107ac565b50505b506001949350505050565b606060058054806020026020016040519081016040528092919081815260200182805480156108d457602002820191906000526020600020905b8154815260200190600101908083116108c0575b5050505050905090565b606060048054806020026020016040519081016040528092919081815260200182805480156108d457602002820191906000526020600020908154815260200190600101908083116108c0575050505050905090565b60008083601f840112610945578182fd5b50813567ffffffffffffffff81111561095c578182fd5b6020830191508360208260051b850101111561097757600080fd5b9250929050565b60008060008060408587031215610993578384fd5b843567ffffffffffffffff808211156109aa578586fd5b6109b688838901610934565b909650945060208701359150808211156109ce578384fd5b506109db87828801610934565b95989497509550505050565b600080604083850312156109f9578182fd5b8235915060208084013567ffffffffffffffff80821115610a18578384fd5b818601915086601f830112610a2b578384fd5b813581811115610a3d57610a3d610d90565b8060051b9150610a4e848301610bc9565b8181528481019084860184860187018b1015610a68578788fd5b8795505b83861015610a8a578035835260019590950194918601918601610a6c565b508096505050505050509250929050565b60006020808385031215610aad578182fd5b823567ffffffffffffffff80821115610ac4578384fd5b818501915085601f830112610ad7578384fd5b813581811115610ae957610ae9610d90565b610afb601f8201601f19168501610bc9565b91508082528684828501011115610b10578485fd5b80848401858401378101909201929092529392505050565b600060208284031215610b39578081fd5b5035919050565b6020808252825182820181905260009190848201906040850190845b81811015610b7857835183529284019291840191600101610b5c565b50909695505050505050565b6000808335601e19843603018112610b9a578283fd5b83018035915067ffffffffffffffff821115610bb4578283fd5b60200191503681900382131561097757600080fd5b604051601f8201601f1916810167ffffffffffffffff81118282101715610bf257610bf2610d90565b604052919050565b60008219821115610c0d57610c0d610d7a565b500190565b600181815b80851115610c4d578160001904821115610c3357610c33610d7a565b80851615610c4057918102915b93841c9390800290610c17565b509250929050565b6000610c618383610c68565b9392505050565b600082610c7757506001610399565b81610c8457506000610399565b8160018114610c9a5760028114610ca457610cc0565b6001915050610399565b60ff841115610cb557610cb5610d7a565b50506001821b610399565b5060208310610133831016604e8410600b8410161715610ce3575081810a610399565b610ced8383610c12565b8060001904821115610d0157610d01610d7a565b029392505050565b6000816000190483118215151615610d2357610d23610d7a565b500290565b600082821015610d3a57610d3a610d7a565b500390565b6000600019821415610d5357610d53610d7a565b5060010190565b600082610d7557634e487b7160e01b81526012600452602481fd5b500690565b634e487b7160e01b600052601160045260246000fd5b634e487b7160e01b600052604160045260246000fdfea26469706673582212203bd70caa4a7d4107676ca98f8641ff43cb175506350af02fc502c7c89531a63d64736f6c63430008040033",
  "linkReferences": {},
  "deployedLinkReferences": {}
}