{
  "_format": "hh-sol-artifact-1",
  "contractName": "GameChannel",
  "sourceName": "contracts/GameChannel.sol",
  "abi": [
    {
      "inputs": [],
      "stateMutability": "payable",
      "type": "constructor"
    },
    {
      "inputs": [],
      "name": "TIMEOUT",
      "outputs": [
        {
          "internalType": "uint256",
          "name": "",
          "type": "uint256"
        }
      ],
      "stateMutability": "view",
      "type": "function"
    },
    {
      "inputs": [
        {
          "internalType": "bytes32",
          "name": "root",
          "type": "bytes32"
        },
        {
          "internalType": "bytes32",
          "name": "leaf",
          "type": "bytes32"
        },
        {
          "internalType": "bytes32[]",
          "name": "proof",
          "type": "bytes32[]"
        }
      ],
      "name": "_verifyMerkleProof",
      "outputs": [
        {
          "internalType": "bool",
          "name": "",
          "type": "bool"
        }
      ],
      "stateMutability": "pure",
      "type": "function"
    },
    {
      "inputs": [],
      "name": "bet",
      "outputs": [
        {
          "internalType": "uint256",
          "name": "",
          "type": "uint256"
        }
      ],
      "stateMutability": "view",
      "type": "function"
    },
    {
      "inputs": [],
      "name": "cancelTimeout",
      "outputs": [],
      "stateMutability": "nonpayable",
      "type": "function"
    },
    {
      "inputs": [],
      "name": "claimTimeout",
      "outputs": [],
      "stateMutability": "nonpayable",
      "type": "function"
    },
    {
      "inputs": [
        {
          "internalType": "uint256[]",
          "name": "_num",
          "type": "uint256[]"
        }
      ],
      "name": "getMessageHash",
      "outputs": [
        {
          "internalType": "bytes32",
          "name": "",
          "type": "bytes32"
        }
      ],
      "stateMutability": "pure",
      "type": "function"
    },
    {
      "inputs": [],
      "name": "getP1",
      "outputs": [
        {
          "internalType": "address",
          "name": "",
          "type": "address"
        }
      ],
      "stateMutability": "view",
      "type": "function"
    },
    {
      "inputs": [],
      "name": "getP2",
      "outputs": [
        {
          "internalType": "address",
          "name": "",
          "type": "address"
        }
      ],
      "stateMutability": "view",
      "type": "function"
    },
    {
      "inputs": [],
      "name": "join",
      "outputs": [],
      "stateMutability": "payable",
      "type": "function"
    },
    {
      "inputs": [],
      "name": "owner",
      "outputs": [
        {
          "internalType": "address",
          "name": "",
          "type": "address"
        }
      ],
      "stateMutability": "view",
      "type": "function"
    },
    {
      "inputs": [
        {
          "internalType": "bytes32",
          "name": "_ethSignedMessageHash",
          "type": "bytes32"
        },
        {
          "internalType": "bytes",
          "name": "_signature",
          "type": "bytes"
        }
      ],
      "name": "recoverSigner",
      "outputs": [
        {
          "internalType": "address",
          "name": "",
          "type": "address"
        }
      ],
      "stateMutability": "pure",
      "type": "function"
    },
    {
      "inputs": [],
      "name": "returnWinner",
      "outputs": [
        {
          "internalType": "address",
          "name": "",
          "type": "address"
        }
      ],
      "stateMutability": "view",
      "type": "function"
    },
    {
      "inputs": [
        {
          "internalType": "bytes",
          "name": "sig",
          "type": "bytes"
        }
      ],
      "name": "splitSignature",
      "outputs": [
        {
          "internalType": "bytes32",
          "name": "r",
          "type": "bytes32"
        },
        {
          "internalType": "bytes32",
          "name": "s",
          "type": "bytes32"
        },
        {
          "internalType": "uint8",
          "name": "v",
          "type": "uint8"
        }
      ],
      "stateMutability": "pure",
      "type": "function"
    },
    {
      "inputs": [],
      "name": "timeout",
      "outputs": [
        {
          "internalType": "uint256",
          "name": "",
          "type": "uint256"
        }
      ],
      "stateMutability": "view",
      "type": "function"
    },
    {
      "inputs": [
        {
          "internalType": "bytes32",
          "name": "_board",
          "type": "bytes32"
        },
        {
          "internalType": "bytes32",
          "name": "_boardBefore",
          "type": "bytes32"
        },
        {
          "internalType": "bytes",
          "name": "_challenger",
          "type": "bytes"
        },
        {
          "internalType": "bytes",
          "name": "_challenged",
          "type": "bytes"
        }
      ],
      "name": "timeoutChallenge",
      "outputs": [
        {
          "internalType": "bool",
          "name": "",
          "type": "bool"
        }
      ],
      "stateMutability": "nonpayable",
      "type": "function"
    },
    {
      "inputs": [
        {
          "internalType": "uint256[]",
          "name": "_num",
          "type": "uint256[]"
        },
        {
          "internalType": "bytes32",
          "name": "_board",
          "type": "bytes32"
        },
        {
          "internalType": "bytes",
          "name": "_signature1",
          "type": "bytes"
        },
        {
          "internalType": "bytes",
          "name": "_signature2",
          "type": "bytes"
        }
      ],
      "name": "verify",
      "outputs": [
        {
          "internalType": "bool",
          "name": "",
          "type": "bool"
        }
      ],
      "stateMutability": "nonpayable",
      "type": "function"
    },
    {
      "inputs": [],
      "name": "winner",
      "outputs": [
        {
          "internalType": "address",
          "name": "",
          "type": "address"
        }
      ],
      "stateMutability": "view",
      "type": "function"
    }
  ],
  "bytecode": "0x608060405266470de4df82000034101561001857600080fd5b34600555600080546001600160a01b031916331790556117978061003d6000396000f3fe6080604052600436106100fe5760003560e01c8063a7bb580311610095578063dfbf53ae11610064578063dfbf53ae14610282578063ee51c20f146102a2578063f56f48f2146102d2578063f78f1d44146102e7578063ff893e0d1461030757600080fd5b8063a7bb580314610200578063b688a3631461023e578063d2501b9c14610246578063ded099781461026457600080fd5b806370dea79a116100d157806370dea79a1461018a5780638da5cb5b146101a057806393b6db5a146101c057806397aba7f9146101e057600080fd5b80630e1da6c31461010357806311610c251461011a5780633744734d146101435780634b8934e814610158575b600080fd5b34801561010f57600080fd5b50610118610327565b005b34801561012657600080fd5b5061013060055481565b6040519081526020015b60405180910390f35b34801561014f57600080fd5b50610118610404565b34801561016457600080fd5b506000546001600160a01b03165b6040516001600160a01b03909116815260200161013a565b34801561019657600080fd5b5061013060065481565b3480156101ac57600080fd5b50600054610172906001600160a01b031681565b3480156101cc57600080fd5b506101306101db3660046113db565b61044c565b3480156101ec57600080fd5b506101726101fb3660046115e0565b61047f565b34801561020c57600080fd5b5061022061021b366004611625565b6104fe565b60408051938452602084019290925260ff169082015260600161013a565b610118610572565b34801561025257600080fd5b506001546001600160a01b0316610172565b34801561027057600080fd5b506002546001600160a01b0316610172565b34801561028e57600080fd5b50600154610172906001600160a01b031681565b3480156102ae57600080fd5b506102c26102bd3660046114af565b6105aa565b604051901515815260200161013a565b3480156102de57600080fd5b50610130603c81565b3480156102f357600080fd5b506102c261030236600461156c565b610667565b34801561031357600080fd5b506102c261032236600461141b565b610827565b42600654111561033657600080fd5b6004546001600160a01b031661034b57600080fd5b600454600180546001600160a01b0319166001600160a01b039092169182179055604051479160009183908381818185875af1925050503d80600081146103ae576040519150601f19603f3d011682016040523d82523d6000602084013e6103b3565b606091505b50509050806104005760405162461bcd60e51b81526020600482015260146024820152732330b4b632b2103a379039b2b7321022ba3432b960611b60448201526064015b60405180910390fd5b5050565b6003546001600160a01b0316331461041b57600080fd5b426006541161042957600080fd5b600380546001600160a01b03199081169091556004805490911690556000600655565b60008282604051602001610461929190611660565b60405160208183030381529060405280519060200120905092915050565b60008060008061048e856104fe565b6040805160008152602081018083528b905260ff8316918101919091526060810184905260808101839052929550909350915060019060a0016020604051602081039080840390855afa1580156104e9573d6000803e3d6000fd5b5050604051601f190151979650505050505050565b600080600083516041146105545760405162461bcd60e51b815260206004820152601860248201527f496e76616c6964207369676e6174757265206c656e677468000000000000000060448201526064016103f7565b50505060208101516040820151606090920151909260009190911a90565b600554341461058057600080fd5b6002546001600160a01b03161561059657600080fd5b600280546001600160a01b03191633179055565b600082815b835181101561065c5760008482815181106105da57634e487b7160e01b600052603260045260246000fd5b6020026020010151905080831161061c576040805160208101859052908101829052606001604051602081830303815290604052805190602001209250610649565b60408051602081018390529081018490526060016040516020818303038152906040528051906020012092505b50806106548161171a565b9150506105af565b509093149392505050565b600060065460001461067857600080fd5b6001546001600160a01b03161561068e57600080fd5b6000546001600160a01b0316331415610750576000546001600160a01b03166106b7868561047f565b6001600160a01b0316146106dd5760405162461bcd60e51b81526004016103f79061169a565b6002546001600160a01b03166106f3858461047f565b6001600160a01b0316146107195760405162461bcd60e51b81526004016103f79061169a565b600254600380546001600160a01b039283166001600160a01b0319918216179091556000546004805491909316911617905561080e565b6002546001600160a01b031633141561080e576002546001600160a01b0316610779868561047f565b6001600160a01b03161461079f5760405162461bcd60e51b81526004016103f79061169a565b6000546001600160a01b03166107b5858461047f565b6001600160a01b0316146107db5760405162461bcd60e51b81526004016103f79061169a565b600054600380546001600160a01b039283166001600160a01b031991821617909155600254600480549190931691161790555b610819603c42611702565b600655506001949350505050565b600080546001600160a01b031661083e858561047f565b6001600160a01b0316146108645760405162461bcd60e51b81526004016103f79061169a565b6002546001600160a01b031661087a858461047f565b6001600160a01b0316146108a05760405162461bcd60e51b81526004016103f79061169a565b6001546001600160a01b0316156108b657600080fd5b858560008181106108d757634e487b7160e01b600052603260045260246000fd5b90506020020135600014801561091457508585600181811061090957634e487b7160e01b600052603260045260246000fd5b905060200201356000145b801561094757508585600281811061093c57634e487b7160e01b600052603260045260246000fd5b905060200201356000145b806109de57508585600381811061096e57634e487b7160e01b600052603260045260246000fd5b9050602002013560001480156109ab5750858560048181106109a057634e487b7160e01b600052603260045260246000fd5b905060200201356000145b80156109de5750858560058181106109d357634e487b7160e01b600052603260045260246000fd5b905060200201356000145b80610a75575085856006818110610a0557634e487b7160e01b600052603260045260246000fd5b905060200201356000148015610a42575085856007818110610a3757634e487b7160e01b600052603260045260246000fd5b905060200201356000145b8015610a75575085856008818110610a6a57634e487b7160e01b600052603260045260246000fd5b905060200201356000145b80610b0c575085856000818110610a9c57634e487b7160e01b600052603260045260246000fd5b905060200201356000148015610ad9575085856004818110610ace57634e487b7160e01b600052603260045260246000fd5b905060200201356000145b8015610b0c575085856008818110610b0157634e487b7160e01b600052603260045260246000fd5b905060200201356000145b80610ba3575085856006818110610b3357634e487b7160e01b600052603260045260246000fd5b905060200201356000148015610b70575085856004818110610b6557634e487b7160e01b600052603260045260246000fd5b905060200201356000145b8015610ba3575085856002818110610b9857634e487b7160e01b600052603260045260246000fd5b905060200201356000145b80610c3a575085856000818110610bca57634e487b7160e01b600052603260045260246000fd5b905060200201356000148015610c07575085856003818110610bfc57634e487b7160e01b600052603260045260246000fd5b905060200201356000145b8015610c3a575085856006818110610c2f57634e487b7160e01b600052603260045260246000fd5b905060200201356000145b80610cd1575085856001818110610c6157634e487b7160e01b600052603260045260246000fd5b905060200201356000148015610c9e575085856004818110610c9357634e487b7160e01b600052603260045260246000fd5b905060200201356000145b8015610cd1575085856007818110610cc657634e487b7160e01b600052603260045260246000fd5b905060200201356000145b80610d68575085856002818110610cf857634e487b7160e01b600052603260045260246000fd5b905060200201356000148015610d35575085856005818110610d2a57634e487b7160e01b600052603260045260246000fd5b905060200201356000145b8015610d68575085856008818110610d5d57634e487b7160e01b600052603260045260246000fd5b905060200201356000145b15610e2a5760008054600180546001600160a01b0319166001600160a01b0390921691821790556040514792919083905b60006040518083038185875af1925050503d8060008114610dd6576040519150601f19603f3d011682016040523d82523d6000602084013e610ddb565b606091505b5050905080610e235760405162461bcd60e51b81526020600482015260146024820152732330b4b632b2103a379039b2b7321022ba3432b960611b60448201526064016103f7565b5050611319565b85856000818110610e4b57634e487b7160e01b600052603260045260246000fd5b905060200201356002148015610e88575085856001818110610e7d57634e487b7160e01b600052603260045260246000fd5b905060200201356002145b8015610ebb575085856002818110610eb057634e487b7160e01b600052603260045260246000fd5b905060200201356002145b80610f52575085856003818110610ee257634e487b7160e01b600052603260045260246000fd5b905060200201356002148015610f1f575085856004818110610f1457634e487b7160e01b600052603260045260246000fd5b905060200201356002145b8015610f52575085856005818110610f4757634e487b7160e01b600052603260045260246000fd5b905060200201356002145b80610fe9575085856006818110610f7957634e487b7160e01b600052603260045260246000fd5b905060200201356002148015610fb6575085856007818110610fab57634e487b7160e01b600052603260045260246000fd5b905060200201356002145b8015610fe9575085856008818110610fde57634e487b7160e01b600052603260045260246000fd5b905060200201356002145b8061108057508585600081811061101057634e487b7160e01b600052603260045260246000fd5b90506020020135600214801561104d57508585600481811061104257634e487b7160e01b600052603260045260246000fd5b905060200201356002145b801561108057508585600881811061107557634e487b7160e01b600052603260045260246000fd5b905060200201356002145b806111175750858560068181106110a757634e487b7160e01b600052603260045260246000fd5b9050602002013560021480156110e45750858560048181106110d957634e487b7160e01b600052603260045260246000fd5b905060200201356002145b801561111757508585600281811061110c57634e487b7160e01b600052603260045260246000fd5b905060200201356002145b806111ae57508585600081811061113e57634e487b7160e01b600052603260045260246000fd5b90506020020135600214801561117b57508585600381811061117057634e487b7160e01b600052603260045260246000fd5b905060200201356002145b80156111ae5750858560068181106111a357634e487b7160e01b600052603260045260246000fd5b905060200201356002145b806112455750858560018181106111d557634e487b7160e01b600052603260045260246000fd5b90506020020135600214801561121257508585600481811061120757634e487b7160e01b600052603260045260246000fd5b905060200201356002145b801561124557508585600781811061123a57634e487b7160e01b600052603260045260246000fd5b905060200201356002145b806112dc57508585600281811061126c57634e487b7160e01b600052603260045260246000fd5b9050602002013560021480156112a957508585600581811061129e57634e487b7160e01b600052603260045260246000fd5b905060200201356002145b80156112dc5750858560088181106112d157634e487b7160e01b600052603260045260246000fd5b905060200201356002145b1561131157600254600180546001600160a01b0319166001600160a01b03909216918217905560405147916000918390610d99565b50600061131d565b5060015b95945050505050565b60008083601f840112611337578182fd5b50813567ffffffffffffffff81111561134e578182fd5b6020830191508360208260051b850101111561136957600080fd5b9250929050565b600082601f830112611380578081fd5b813567ffffffffffffffff81111561139a5761139a61174b565b6113ad601f8201601f19166020016116d1565b8181528460208386010111156113c1578283fd5b816020850160208301379081016020019190915292915050565b600080602083850312156113ed578182fd5b823567ffffffffffffffff811115611403578283fd5b61140f85828601611326565b90969095509350505050565b600080600080600060808688031215611432578081fd5b853567ffffffffffffffff80821115611449578283fd5b61145589838a01611326565b9097509550602088013594506040880135915080821115611474578283fd5b61148089838a01611370565b93506060880135915080821115611495578283fd5b506114a288828901611370565b9150509295509295909350565b6000806000606084860312156114c3578283fd5b833592506020808501359250604085013567ffffffffffffffff808211156114e9578384fd5b818701915087601f8301126114fc578384fd5b81358181111561150e5761150e61174b565b8060051b915061151f8483016116d1565b8181528481019084860184860187018c1015611539578788fd5b8795505b8386101561155b57803583526001959095019491860191860161153d565b508096505050505050509250925092565b60008060008060808587031215611581578384fd5b8435935060208501359250604085013567ffffffffffffffff808211156115a6578384fd5b6115b288838901611370565b935060608701359150808211156115c7578283fd5b506115d487828801611370565b91505092959194509250565b600080604083850312156115f2578182fd5b82359150602083013567ffffffffffffffff81111561160f578182fd5b61161b85828601611370565b9150509250929050565b600060208284031215611636578081fd5b813567ffffffffffffffff81111561164c578182fd5b61165884828501611370565b949350505050565b6020808252810182905260006001600160fb1b0383111561167f578081fd5b8260051b808560408501379190910160400190815292915050565b6020808252601a908201527f454f415665726966793a205369676e6564206d69736d61746368000000000000604082015260600190565b604051601f8201601f1916810167ffffffffffffffff811182821017156116fa576116fa61174b565b604052919050565b6000821982111561171557611715611735565b500190565b600060001982141561172e5761172e611735565b5060010190565b634e487b7160e01b600052601160045260246000fd5b634e487b7160e01b600052604160045260246000fdfea2646970667358221220569a26835b8cc55d9da99e50e0e9cab7149cf440f60d30b807967c8ce9341bd764736f6c63430008040033",
  "linkReferences": {},
  "deployedLinkReferences": {}
}